:02000002D0002C
:1040000000400D00009F0D00000006000C0005019F
:08401000040115050000000089
:10401800E8950D0009480A49884208B505D0094ABB
:10402800824202D0121A04F0A0FE0748074A002173
:10403800121A04F0C0FE014808BD00BF60DC03206E
:10404800209E0D0018DD032018DD0320F0E7032073
:1040580070B502F0A1FD074C074BE41AA40800252F
:104068001E46A54204D056F8253098470135F8E792
:1040780070BD00BF189E0D00689D0D0000F0BEB910
:1040880008B500F0FBFABDE8084002F053BD01F0A6
:1040980061BC01F067BC01F065BC0078B0FA80F043
:1040A80040097047012303707047FEE7FEE7FEE70B
:1040B80003681847012A02D0022A02D004E00160EE
:1040C80002E00B6800B103600020704700000000A8
:1040D80073B5214800F04CFC8DED010A03F0EAF8B5
:1040E8009DED010A064610EE100A04F08DF904460B
:1040F8000D4645EC104B0221304602F0D3FB03F08D
:10410800D9F8164902F0C1FA03F0D4F810A3D3E99C
:10411800002306462946204604F0CAF90022104B1F
:1041280004F014F804F0BCFC04F06EF941EC100B38
:104138000221304602F0B6FB03F0BCF8094902F050
:10414800A4FA4FF4FA7002F085FCC2E7AFF30080DE
:10415800CDCCCCCCCCCCFC3F30E303200C960D006E
:104168000000404011960D0010B5012303748368C8
:1041780004460BB1C06806E0006828B183680BB933
:1041880003F093FEC3689847012363740020BDE8D9
:10419800104001F0DBB9000010B5034B0360044682
:1041A80000F0C8FC204610BD04960D0010B504466A
:1041B800FFF7F2FF204640F24C5103F065FE20461F
:1041C80010BD000013B508460C4604F052FE214607
:1041D80002460F4800F0DFFC0D4801F00CF8A0B1D2
:1041E8000B4800F007FD01AB01460A4A084800F0F9
:1041F80009FE20B1084A0199054800F0E5FD03F0E1
:1042080059F8054B196802F040FA02B010BD00BF1A
:104218001CDD032016960D00B8E2032010B5836854
:10422800044613B1032201469847204610BD38B50D
:10423800044670B1056835B12846FFF7EFFF102135
:10424800284603F021FE20461421BDE8384003F03B
:104258001BBE38BD10B503680446BBB1586801F0F1
:1042680035F978B923685A7C12B9586801F03EF9D3
:104278002368586801F042F920680023236028B1B8
:10428800FFF7D5FF206808B1FFF7D1FF204610BD22
:104298002DE9FF4106460F4614202A49154698463F
:1042A80003F0F4FD044630B1002303740360436057
:1042B8008360C36043743460002C39D021491020D6
:1042C80003F0E4FD0346B0B10022826095E80300E4
:1042D80002AA82E8030093E8030085E8030092E855
:1042E800030083E803009968AA68A9609A60EA68ED
:1042F800D968E960DA602568236035B12846FFF798
:104308008DFF1021284603F0BFFD306803687BB19C
:104318000A9B42468DE8090039460B4B043001F0F0
:10432800CDF828B933681B7C43B901F0D7F8F9E711
:1043380030680023336008B1FFF779FF304604B0D6
:10434800BDE8F081649B0D0071410D0030B5054654
:1043580091B008460C4602F033FB042804DC2046E2
:1043680002F02EFBC11D00E000210A22684601F080
:104378007FFC204602F02CFB1849024604A801F0F5
:10438800DFFC204602F02CFB1449024608A801F085
:10439800D7FC69460CA801F04FFC11490CA801F0A4
:1043A800AAFC04A901F09BFC0D4901F0A4FC08A992
:1043B80001F095FC0146284601F03EFC0CA801F0EE
:1043C800D2FB08A801F0CFFB04A801F0CCFB68469B
:1043D80001F0C9FB284611B030BD00BF23960D007F
:1043E800F0970D0010B500220B680A6004460068BB
:1043F800236008B1FFF71BFF204610BD70B58CB0D5
:104408004FF44064604B614E614D039303AA02234D
:1044180000946049069602A80595FFF739FF02A99E
:104428005D48FFF7DFFF02A8FFF714FF03A8FFF7B7
:10443800F5FE5A4B039303AA0223009458490696A3
:1044480002A80595FFF724FF02A95648FFF7CAFFFF
:1044580002A8FFF7FFFE03A8FFF7E0FE524B039305
:1044680003AA022300945149069602A80595FFF76E
:104478000FFF02A94E48FFF7B5FF02A8FFF7EAFEB3
:1044880003A8FFF7CBFE4B4B039303AA0223009428
:104498004949069602A80595FFF7FAFE02A947487A
:1044A800FFF7A0FF02A8FFF7D5FE03A8FFF7B6FEA7
:1044B800434B039303AA022300944249069602A899
:1044C8000595FFF7E5FE02A93F48FFF78BFF02A815
:1044D800FFF7C0FE03A8FFF7A1FE0021112000246A
:1044E80003F058FC02F0E6FE4FF4165102F0D6FE37
:1044F80023462246354901940094354801F012FAC2
:104508000121072003F046FC2146072003F053FC55
:10451800202303932F4B0593C92306932E4B079310
:10452800072304948DF810302C4B2D49009303AACF
:104538002346012001F03AF902F044FF4FF4E1313B
:1045480002F03AFF03A801F0B6FC264903A801F0DF
:10455800CCFC01F037FF224603A901F068FD224890
:1045680000F083FA48B902F0A5FE204902F08DF860
:104578004FF4FA7002F06EFAF1E702F09BFE1C4964
:1045880002F083F80CB070BDB7400D00B9400D00C3
:10459800BD400D0028960D0044E30320B5400D00F2
:1045A80030960D002CE30320B3400D003A960D0021
:1045B8003CE3032029460D004C960D0068E20320D9
:1045C800D9400D0059960D0040E30320CD410D0060
:1045D80066960D007D960D0033970D00AB960D0085
:1045E800A7960D00C0960D0030E30320C5960D0078
:1045F800D7960D0038B5046805467CB16368013B61
:1046080063605BB9236820469B689847A368013BB1
:10461800A3601BB923682046DB689847284638BD45
:1046280030B512A5D5E9004595B012A3D3E900230A
:10463800CDE900450A4904A801F0A4F9094B0A4943
:104648001B788DF8003004AA3C2302A802F0E2FB94
:1046580003A8FFF7CFFF47F2305002F0FBF9E4E779
:10466800E2960D00CCE2032074960D0055C1A8A473
:104678004EE855C00E4FAF9465F0444070B5584BA6
:104688001B68012B92B004D102F014FE554901F0C9
:10469800FCFF02F097FE544A544C002102F00DF939
:1046A8004FF4FA7002F0D6F902F08CFE4E4A00215F
:1046B80002F003F900F0C2FE2368834280F08D8087
:1046C8004B4B02A9186800F0FCF9029906A8FFF7FD
:1046D8003DFE06A90AA801F0AFFA46490AA801F06A
:1046E8000AFB039A444905460EA801F029FB0EA9C6
:1046F800284601F0F4FA414D02682B7840498DF8BC
:10470800003004A83C2302F085FB05A8FFF772FFE0
:104718000EA801F028FA0AA801F025FA06A801F067
:1047280022FA02F086F901460EA8FFF70FFE2B7851
:104738000E9A34498DF800300AA83C2302F06AFB2F
:104748000BA8FFF757FF0EA801F00DFA02F0B2FD13
:104758000299054606A8FFF7F9FD06A90AA801F07F
:104768006BFA24490AA801F0C6FA039A22490646B8
:104778000EA801F0E5FA0EA9304601F0B0FA01687A
:10478800284601F082FF0EA801F0EDF90AA801F011
:10479800EAF906A801F0E7F902F08CFD1A49054686
:1047A8000EA801F027FA02F044F901460AA8FFF71B
:1047B800CDFD0AA90EA801F092FA0168284601F079
:1047C80064FF0AA801F0CFF90EA801F0CCF900F0B7
:1047D80035FE00F56A501830206012B070BD00BF79
:1047E80038E30320E8960D00F2960D0070E20320EE
:1047F800C8E20320BE960D0004970D006CE203206A
:1048080009970D0018970D002A970D0010B5044B55
:10481800044640F8183BFFF7EDFE204610BD00BFE8
:10482800A09A0D00394BF7B50024394E1C70394B4E
:10483800394D01271F7000F0B9FD304603F086F9A5
:1048480006F11C0002F086FC2A463449746330469F
:10485800348703F00BFB324B21461E605C609C6082
:10486800DC601C615C611C835C831C775C77384668
:1048780000F0BCFF2B4E2C48182100F075F83223AD
:10488800009306F12C0106F50B734FF400723046C5
:1048980000F0A0F9254B33603046254E25492A46BD
:1048A80003F0E4FA304600F019FD3046224E234961
:1048B8002A4603F0DBFA2249304601F09BF92A46E2
:1048C8002049304603F0D2FA1F4E20482A46314686
:1048D800046003F0CBFA1E482A463146046003F010
:1048E800C5FA1C482A463146046003F0BFFA1A4844
:1048F8002A463146046003F0B9FA18482A46314678
:10490800046003B0BDE8F04003F0B0BA6CE20320E5
:10491800F0E20320CCE2032018DD032015480D0047
:10492800D0E203201CDD032030E3032004960D00B1
:1049380074E20320A1410D00B8E20320B1520D003A
:10494800A4980D006F5B0D005D420D0040E303204D
:1049580068E203203CE303202CE3032044E3032024
:104968000368C9B29B681847182303707047000092
:10497800F8B5054603F05AFA0222297802F0ACFD90
:10498800642403F053FA03681B699847012807DC7D
:10499800012002F05FF8013CF3D19FED1D0A36E0DB
:1049A80003F044FA03685B6998470446C6B203F00B
:1049B8003DFA03685B699847F3096B70C4F3801389
:1049C800AB7004F01007C4F34013C4F30014EB7089
:1049D8002C71C0B203F006FD00220E4B03F068FDF7
:1049E80006F00F06044630010D4603F0FBFC0246B4
:1049F8000B462046294603F0A9FB04F051F800EEC7
:104A0800100A27B1DFED047A30EE670AF8BDF8BD69
:104A1800E1FAC7C20000B03F0000804338B5044641
:104A28000D4603F003FA217802F05BFD03F0FEF96E
:104A3800036829469B68984703F0F8F902F059FD86
:104A480003F0F4F92178022202F043FD03F0EEF9B5
:104A580003685B69984784B203F0E8F903685B6907
:104A6800984740EA042080B238BD10B5044603F0E8
:104A7800DDF902F041FD18B903F0D8F902F01AFD8A
:104A880006212046FFF7CAFF542801D0002010BD98
:104A980007212046FFF7C2FFB0F5806FF6D103F07B
:104AA800C5F9217802F01DFD03F0C0F90521FFF7D3
:104AB80057FF03F0BBF902F01CFD012010BD00F008
:104AC80075BC70B590F8526004460D4626B901F0E1
:104AD800B0FF85E8410070BD00F0B0FCA26F636FC5
:104AE8009B1A1844A26DA36E4FF47A719B1A90FB1F
:104AF800F1F2134401FB12002B60686070BD00F0F6
:104B080055BC000010B5054B0360037C04461BB977
:104B1800406808B100F026FF204610BD48970D00F8
:104B280010B50446FFF7EEFF2046142103F0ACF958
:104B3800204610BD10B5074B0360037C04461BB923
:104B4800406908B100F00EFF2046FFF7DBFF204662
:104B580010BD00BF84970D0010B50446FFF7EAFFAB
:104B680020462C2103F090F9204610BD38B5037C6F
:104B780004460D460BB1002038BD406810B100F066
:104B8800F9FE02E0084600F0E5FE0028F3D0606078
:104B9800A560012038BD70B543680E460446154629
:104BA800C1687BB15318826893420BD8E368606888
:104BB8002A463146184404F0D8F8E3681D44E560F5
:104BC800012070BD29442046FFF7D0FF0028EDD111
:104BD80070BD000010B582600022C260012202741C
:104BE8004361034A029B41600260C36110BD00BF7C
:104BF80084970D0043698269934205D21A78012A85
:104C08000CBF1846002070470020704770B5136825
:104C18009D68136803F1100414608669B4420AD2CF
:104C28009B698C68A34201DA9D42F2DAA342CCBFA9
:104C38000020012070BD002070BD2DE9F34702ADB2
:104C48009A4601F110030A9E45F8043D07460C46B2
:104C580091464FF00008019BBA699A421ED999689B
:104C6800A26891421ADAB0450BD1C9F800302A4639
:104C780021463846FFF7CAFF18B1019BCAF8003031
:104C88000DE02A4621463846FFF7C0FF2A4621464E
:104C9800384608F10108FFF7B9FFDCE7002002B049
:104CA800BDE8F08738B5044600680D4610B101F03C
:104CB80009F807E0616829B1A368E268013B9A42F4
:104CC80038BF8D54E3680133E36038BD7F2870B581
:104CD8000C4601D8C1B219E0B0F5006F4FEAA01533
:104CE80000F03F0603D265F03F01C9B209E0010BAD
:104CF80041F0E0012046FFF7D5FF05F03F0141F004
:104D080080012046FFF7CEFF46F080012046BDE82F
:104D18007040FFF7C7BF00002DE9FF414D6880468E
:104D28000F4616460024B868854246DAD8F804309B
:104D3800CCB3595D6E2903EB05020FD005D8622963
:104D48000AD066290BD10C2109E074290ED07529E7
:104D58000ED0722903D107E0082100E00A2130466D
:104D6800FFF7A0FF002426E00D21F8E70921F6E768
:104D78002B1D9842F6DD002302A812F8011F1954D2
:104D88000133042BF8D1002301AA0E498DF80C3009
:104D980000F000FE0128E5D13146BDF80400FFF718
:104DA80095FF0535DEE7595D5C2903D03046FFF7EE
:104DB80079FF00E001240135B5E7012004B0BDE822
:104DC800F08100BF54970D007FB50C4606460C498C
:104DD8001046154600F03BFFA3686168591A013177
:104DE800284600F0DEFE00236A462146304600953C
:104DF800019302930393FFF78FFF04B070BD00BFC8
:104E0800A4980D002DE9F04389B006460F4604A882
:104E180011499046994600F0EDFE002500954B4655
:104E280003AA39463046FFF708FF044668B104AACA
:104E380003993046FFF7C8FF044620B1414604A84D
:104E480000F06BFF08B90135E8E704A800F08BFE15
:104E5800204609B0BDE8F083A4980D002DE9F04F75
:104E680044684FF0FF354FF0030ED0F800C094456A
:104E780080F09E8111F80C80B8F1000F00F0988145
:104E8800B8F12C0F00F0168118D8B8F10D0F00F00A
:104E98008B8106D8A8F10908B8F1010F40F2848186
:104EA8003DE1B8F1200F00F07F81B8F1220F40F00A
:104EB80036810CF10109C0F8009092E0B8F15D0F5D
:104EC8003CD007D8B8F13A0F00F0F080B8F15B0F8A
:104ED80007D024E1B8F17B0F03D0B8F17D0F2DD0B6
:104EE8001DE10134002B00F05F814768099EBE4236
:104EF80040F27D8107F1010CC0F804C04FEA071C9D
:104F080003EB0C0A0026CAF80450CAF80C60CAF869
:104F1800085087687E1C1FBF03EB0719D9F80C706F
:104F28000137C9F80C70B8F17B0F14BF02270127AD
:104F380003F80C700768CAF80470B7E0002B00F09B
:104F480033814768B8F17D0F07F1805808F1FF38C1
:104F580014BF4FF0020A4FF0010A07F1FF3903EBC3
:104F68000818B9F1000F19DBD8F80470013710D010
:104F7800D8F808707E1C0CD198F800B0D34540F0E2
:104F8800298187600CF10107C8F8087003EB091C38
:104F980011E009F1FF39A8F11008E2E7B9F1FF3F84
:104FA80040F0028116E109F1FF39B9F1FF3FACF198
:104FB800100C00F0F980DCF804700137F3D0DCF84D
:104FC80008700137EFD1C0F80890EDE011F80870CB
:104FD800002F68D0222F09D05C2F26D00768013710
:104FE8000760D0F800804245F0D85CE0002B00F064
:104FF800CE804768099EBE4240F2F78007F1010C57
:105008003F01C0F804C003EB070C0026CCF8085099
:10501800CCF80450CCF80C60D0F8008003F807E016
:10502800CCF80490CCF80880B1E008F10107BA4246
:10503800D4D90760CF5D662FD0D008D82F2FCDD018
:1050480001D8222F07E05C2FC8D0622F03E0722F0F
:10505800C4D002D86E2F75D1C0E7742FBED0752F7B
:1050680070D108F1020707604FF0040AD0F80080F9
:10507800424503D80768013F0760AFE711F8087099
:10508800002FF7D0A7F1300BBBF1090F04D927F097
:105098002007413F052F55D808F10107BAF1010A49
:1050A8000760E3D1E6E7C0F800C09AE04768013F2F
:1050B800876079E0002B77D087687E1C74D03F0129
:1050C800DF5D013F012F6FD9476807F1FF3803EB18
:1050D800071CB8F1000F67DB1CF8107C013F012F9B
:1050E8000AD85CF80C7C013706D05CF8087C0137DC
:1050F80002D1C0F8088057E008F1FF38ACF1100C75
:10510800E7E711F8087007B3202F1ED010D8092F31
:105118000AD2203F5E2F15D808F101070760D0F8A2
:1051280000804245EDD810E00A2F0ED90D2F07E078
:105138003A2F0AD001D82C2F02E05D2F05D07D2F01
:10514800E7D102E0C0F800C044E013B908F1FF3726
:105158001CE04768099EBE4247D907F101083F0194
:10516800C0F8048003EB07080026C8F80850C8F800
:105178000450C8F80C604FF00406D0F80090DE55D3
:10518800C8F804C0C8F808900768013F0760876836
:105198007E1C04F1010407D033B103EB071CDCF8D3
:1051A8000C700137CCF80C700768013707605CE6B3
:1051B800A3B14268511E03EB021300290EDB53F81A
:1051C8000C2C013203D053F8082C013209D00139D4
:1051D800103BF2E76FF00100BDE8F08F2046BDE814
:1051E800F08F6FF00200BDE8F08FC0F800C04FF0FC
:1051F800FF30BDE8F08FF7B54369044600F120069B
:10520800F3B10022026242624FF0FF328262C26949
:105218000092C26841683046FFF720FE431C09D15E
:10522800257C0DB1002033E0606900F09BFB6561CF
:10523800E56105E00028F5DB636903EB001325E071
:1052480000254FF0FF3725626562A76200952B465F
:10525800E26861683046FFF701FE0028E2DBE061A2
:1052680013D0000100F076FBE2696061034600920A
:1052780025626562A762E26861683046FFF7EEFD65
:10528800636903EB0010A06101E06369A361012079
:1052980003B0F0BD00F08AB800F088B800F086B816
:1052A80000F084B800F082B810B5064B044640F808
:1052B8002C3B00F058FC04F10C0000F054FC204694
:1052C80010BD00BF94970D0010B50446FFF7ECFF22
:1052D8002046442102F0D8FD204610BD38B50F4BBA
:1052E8000360002542F210730446456083600C4950
:1052F8000C3000F07FFC4FF4FA53A362E56125629D
:105308006562084904F12C0000F074FC4FF49B73AB
:10531800E3634FF4CD732364204638BD94970D00A2
:10532800D4970D00E2970D00024B01221A7000F08D
:105338003DB800BF48E3032000F038B800F036B8A5
:1053480000F034B800F032B800F030B800F02EB8F1
:1053580000F02CB800F02AB800F028B800F026B801
:1053680000F024B800F022B800F020B800F01EB811
:1053780000F01CB800F01AB800F018B800F016B821
:1053880000F014B800F012B800F010B808B5024BDD
:105398001B689B68019308BD6802030008B5024BAF
:1053A8001B68DB68019308BD6802030008B5024B5F
:1053B8001B681B68019308BD2C02030008B5024B4B
:1053C8001B689B68019308BD2C02030008B5024BBB
:1053D8001B68DB68019308BD2C02030008B5024B6B
:1053E8001B681B69019308BD2C02030008B5024B1A
:1053F8001B68DB69019308BD3002030008B5024B46
:105408001B681B6A019308BD3002030008B5024BF4
:105418001B685B69019308BD6C02030008B5024B69
:105428001B685B68019308BD1802030008B5024BAE
:105438001B68DB68019308BD1802030008B5024B1E
:105448001B685B69019308BD1802030008B5024B8D
:105458001B68DB69019308BD1802030008B5024BFD
:105468001B689B6D019308BD1802030008B5024B29
:105478001B689B68019308BD7802030008B5024BBE
:105488001B685B69019308BD7802030008B5024BED
:105498001B681B6D019308BD7802030008B5024B19
:1054A8001B689B6D019308BD7802030008B5024B89
:1054B8001B681B6E019308BD7802030008B5024BF8
:1054C8001B685B68019308BD4802030008B5024BDE
:1054D8001B689B68019308BD4802030008B5024B8E
:1054E8001B68DB68019308BD4802030008B5024B3E
:1054F8001B681B69019308BD4802030008B5024BED
:105508001B685B69019308BD4802030008B5024B9C
:105518001B681B6B019308BD4802030008B5024BCA
:105528001B685B6C019308BD4802030008B5024B79
:105538001B68DB6C019308BD4802030008B5024BE9
:105548001B685B6D019308BD4802030008B5024B58
:105558001B68DB6E019308BD4802030008B5024BC7
:105568001B685B69019308BD6402030008B5024B20
:105578001B681B6A019308BD6402030008B5024B4F
:105588001B689B6A019308BD6402030008B5024BBF
:105598001B681B68019308BD3C02030008B5024B59
:1055A8001B68DB68019308BD3C02030008B5024B89
:1055B8001B681B69019308BD3C02030008B5024B38
:1055C8001B685B69019308BD3C02030008B5024BE8
:1055D8001B689B69019308BD3C02030008B5024B98
:1055E8001B68DB69019308BD3C02030008B5024B48
:1055F8001B681B6A019308BD3C02030008B5024BF7
:105608001B689B6A019308BD3C02030008B5024B66
:105618001B68DB6A019308BD3C02030008B5024B16
:105628001B68DB68019308BD2802030008B5024B1C
:105638001B685B69019308BD2802030008B5024B8B
:105648001B689B69019308BD2802030008B5024B3B
:105658001B68DB69019308BD2802030008B5024BEB
:105668001B681B6A019308BD2802030008B5024B9A
:105678001B685B6A019308BD2802030008B5024B4A
:105688001B689B6A019308BD2802030008B5024BFA
:105698001B68DB6A019308BD2802030008B5024BAA
:1056A8001B681B6B019308BD2802030008B5024B59
:1056B8001B685B6B019308BD2802030008B5024B09
:1056C8001B681B6C019308BD2802030008B5024B38
:1056D8001B689B69019308BD3802030008B5024B9B
:1056E8001B68DB69019308BD3802030008B5024B4B
:1056F8001B681B6A019308BD3802030008B5024BFA
:105708001B689B6A019308BD3802030008B5024B69
:105718001B681B6B019308BD3802030008B5024BD8
:105728001B689B6B019308BD3802030008B5024B48
:105738001B681B68019308BD4C02030008B5024BA7
:105748001B685B68019308BD4C02030008B5024B57
:105758001B681B69019308BD4C02030008B5024B86
:105768001B685B69019308BD4C02030008B5024B36
:105778001B689B69019308BD4C02030008B5024BE6
:105788001B68DB69019308BD4C02030008B5024B96
:105798001B681B6A019308BD4C02030008B5024B45
:1057A8001B685B6B019308BD6002030008B5024BE0
:1057B8001B681B6D019308BD6002030008B5024B0E
:1057C8001B681B68019308BD2002030008B5024B43
:1057D8001B685B68019308BD2002030008B5024BF3
:1057E8001B685B69019308BD2002030008B5024BE2
:1057F8001B68DB6A019308BD2002030008B5024B51
:105808001B68DB6C019308BD2002030008B5024B3E
:105818001B685B6D019308BD2002030008B5024BAD
:105828001B689B6D019308BD2002030008B5034B5C
:105838001B68D3F88830019308BD000020020300DC
:1058480008B5034B1B68D3F89430019308BD0000DA
:105858002002030008B5024B1B685B68019308BD72
:105868004002030008B5024B1B689B68019308BD02
:105878004002030008B5024B1B68DB68019308BDB2
:105888004002030008B5024B1B681B69019308BD61
:105898004002030008B5024B1B685B69019308BD11
:1058A8004002030008B5024B1B689B69019308BDC1
:1058B8004002030008B5024B1B68DB69019308BD71
:1058C8004002030008B5024B1B681B6A019308BD20
:1058D8004002030008B5024B1B681B6B019308BD0F
:1058E8004002030008B5024B1B685B6B019308BDBF
:1058F8004002030008B5024B1B689B68019308BD72
:105908004402030008B5024B1B685B69019308BD9C
:105918004402030008B5024B1B681B6A019308BDCB
:105928004402030008B5024B1B685B6A019308BD7B
:105938004402030008B5024B1B681B6B019308BDAA
:105948004402030008B5024B1B68DB6B019308BDDA
:105958004402030008B5024B1B681B68019308BD8D
:105968001C02030008B5024B1B685B68019308BD65
:105978001C02030008B5024B1B689B68019308BD15
:105988001C02030008B5024B1B68DB68019308BDC5
:105998001C02030008B5024B1B685B69019308BD34
:1059A8001C02030008B5024B1B689B69019308BDE4
:1059B8001C02030008B5024B1B685B6A019308BD13
:1059C8001C02030008B5024B1B68DB6A019308BD83
:1059D8001C02030008B5024B1B681B6B019308BD32
:1059E8001C02030008B5024B1B68DB6B019308BD62
:1059F8001C020300002211464068FFF763BF002223
:105A080011464068FFF76EBF00224068FFF762BF8B
:105A1800002281F001014068FFF74CBF00231A46BD
:105A280019464068FFF73EBF00231A4619464068EA
:105A3800FFF730BF002211464068FFF723BF00225E
:105A480011464068FFF70EBF002202214068FFF7A9
:105A580011BF00231A464068FFF7FCBE024B032221
:105A68005A60024A1A6070474CE303202C980D00D4
:105A7800704710B51021044602F006FA204610BD02
:105A880070B5084B0360044600250E4640F80C5FCD
:105A9800FFF73CFD30462671FFF7A8FCA5602046BD
:105AA80070BD00BF60980D000079FFF7A7BC00002B
:105AB800044B00204FF6FF72187058809A80FFF749
:105AC80085BE00BF54E3032010B5044603F0D1F9A6
:105AD800013823182046984206D20278197800F82F
:105AE800011B03F80129F6E710BD70B50C46911E9D
:105AF800222920D82546294610B9234430220EE011
:105B0800B0FBF2F602FB1600C1B205F8011B09282A
:105B180094BF3031573105F8011C3046EBE7994204
:105B280002D201F8012BFAE7002320460B70FFF799
:105B3800CBFF204670BD002070BD38B5031E0C4653
:105B480015460BDAB3F1004F4FF02D0214BF58423F
:105B5800184601230A702A46194400E00123FFF77A
:105B6800C4FF204638BD10B504460068FFF7FAFEAA
:105B7800204610BD10B50446006808B1FFF7F2FED4
:105B880000232360A360636010BD38B504460D464A
:105B980000680131FFF7EEFE10B184E82100012012
:105BA80038BD10B50368044613B143688B4207D269
:105BB8002046FFF7EAFF20B1A3680BB922681370EB
:105BC800012010BD70B50E46114604461546FFF774
:105BD800E8FF18B92046FFF7CDFF09E02A4631460D
:105BE800A560206803F0C1F82268A3680021D15499
:105BF800204670BD38B500230446036043608360C7
:105C080003730D4639B1084603F033F929460246B5
:105C18002046FFF7D7FF204638BD884210B50B460F
:105C2800044607D0096819B19A68FFF7CBFF01E06D
:105C3800FFF7A0FF204610BD10B5002304460360FF
:105C4800436083600373FFF7E8FF204610BD38B553
:105C580005460C4641B1084603F00BF921460246B9
:105C68002846FFF7AFFF01E0FFF784FF284638BD5D
:105C780010B5044600238AB023606360A3602373D1
:105C8800084601A9FFF759FF01A92046FFF7DFFFE2
:105C980020460AB010BD70B504460E4609B900206A
:105CA80070BD6AB18368D5182946FFF77AFF0028C6
:105CB800F5D02068A3683146184403F0B7F8A5600A
:105CC800012070BD07B500238DF80410012201A939
:105CD8008DF80530FFF7DFFF03B05DF804FB10B562
:105CE8008A6809680446FFF7D6FF10B92046FFF70F
:105CF80041FF204610BD38B504460D4641B108465F
:105D080003F0B7F8294602462046FFF7C4FF10B94A
:105D18002046FFF72FFF204638BD08B582680B469E
:105D280012B919B9012008BD11B90368187802E041
:105D3800006803F071F8B0FA80F0400908BD00006F
:105D48000EB4FFB509AC054654F8047B019423460C
:105D58003A46052102A8FFF72DFE0C4906462846BB
:105D6800FFF748FF31462846FFF71BFF286830B188
:105D780023463A46711C0194FFF71CFEA86028468A
:105D880004B0BDE8F04003B0704700BFA4980D0010
:105D980070470020704710B51421044602F074F8CB
:105DA800204610BDFEF775B908B582798B799A42FD
:105DB80006D1062202F0CAFFB0FA80F0400908BDF9
:105DC800002008BD10B500230370044B0446186872
:105DD800FFF7ACFB01232370204610BD80E30320AE
:105DE80010B5037804461BB1024B1868FFF7A6FBF1
:105DF800204610BD80E30320F0B58BB10024E51CDC
:105E08008D420FD8661C055D875D974205D12E44EB
:105E1800B14207D31C60681CF0BD01352C44EEE785
:105E28001846F0BD0020F0BD2DE9F74304460E46A4
:105E38001D461746002A3AD00A4601AB016AFFF709
:105E4800DBFF9DF82830226A03BBF8B1961C2E446C
:105E5800361A1F2E2BD8DDF8048008F10209C8EB8A
:105E68000202121A00EB080105EB090092B2214464
:105E7800204402F085FF6B1C04F808302A46394696
:105E880004EB090002F071FF266210E0901C2B1849
:105E98001F2B0CD86B1CA354224420623946567021
:105EA80020442A4602F061FF226A2A442262206ABC
:105EB80003B0BDE8F0831FB50446034600F11F0296
:105EC800002003F8010B93424FF00001F9D104AA16
:105ED800062302F8013D012321620091204619465C
:105EE800FFF7A2FF204604B010BD37B505460846A7
:105EF8000C4602F0BEFF0023009322460346092108
:105F08002846FFF791FF03B030BD73B50A460E4629
:105F180001AB016A0446FFF76FFF054678B10198A7
:105F2800226A2918121A521B2144204402F01DFF2C
:105F3800236A5D1B256231462046FFF7E6FF02B063
:105F480070BD2DE9F84390E850000D461746984675
:105F580004EBC606A64233D023689A69D96902EBD6
:105F6800C10191421BD013689BB1B3F84200A8420B
:105F780011D0B3F84400A8420DD0B3F84600A842A7
:105F880009D0B3F84800A84205D0B3F84A00A8429F
:105F980001D00832E5E717B1B8F1000F01D1083494
:105FA800D8E7D3F84C90B9F1000FF8D0B3F84420F3
:105FB800AA42F4D11B6D089A41463846C847EEE715
:105FC800BDE8F88308B500680968C28ACB8A9A4296
:105FD80004D101310130FFF7E7FE08BD002008BDFC
:105FE800084609B90A4601E0096A0022FFF74EBAD5
:105FF80010B50C4611B90A46084606E001212046AC
:10600800FFF783FF216A00222046BDE81040FFF712
:1060180045BA13B501A8FFF7D5FE0020FFF746FAE9
:10602800044601A8FFF7DCFE204602B010BD73B598
:1060380005460C4601A81646FFF7C4FE2146284629
:10604800FFF7CEFF002808DB31462846FFF7D0FFD0
:10605800002802DB2846FFF7DCFF044601A8FFF70B
:10606800BFFE204602B070BD30B5836993E81400C6
:1060780002EBC404A242134607D01D68ED8A8D4284
:1060880002F10802F6D1184630BDC2691368526899
:1060980003EBC2029A42184606D00468E48A8C428E
:1060A80003F10803F6D130BD002030BD0B68036052
:1060B80013B15A6801325A60704710B551F8043B61
:1060C800044640F8043BFFF7F1FF204610BD70B5C9
:1060D80004684368054604EBC306A64204D0201DA5
:1060E800FEF788FA0834F8E72868FFF73BFC2846EB
:1060F80070BD38B5044610200D78FDF7C8FF20B1F3
:10610800002303604360836005732060204638BD28
:1061180038B50468054634B12046FFF7D8FF10218A
:10612800204601F0B1FE284638BD10B5046904F1D7
:106138001C00FFF7EDFF2046BDE81040FDF7A9BFA2
:1061480070B504684368054604EBC306A64204D04C
:10615800201DFEF74FFA0834F8E700236B6070BD86
:106168008842F8B506460C46154614D9904213D213
:10617800A2F108056C1AA1F108070444AF4218D02F
:106188001CB129462046FFF798FF281DFEF732FA72
:10619800083D083CF2E70CD0AC420AD01EB12146BB
:1061A8003046FFF78AFF201DFEF724FA0834083628
:1061B800F2E7F8BDF8B50B68DA690E46136851685E
:1061C800054603EBC101002499420DD01868826985
:1061D800C06902EBC000904204D052F8087B87F8EF
:1061E8005C40F8E70833EFE733684FF6FF710022A9
:1061F800D9827F211A701976C3F80A20C3F80E20B5
:10620800C3F812202C686B6804EBC307BC4216D095
:1062180031462046FFF7D6FE08B90834F6E774B1D0
:10622800201DFEF7E7F92B686A6804F1080103EB03
:10623800C2022046FFF794FF6B68013B6B60F8BD14
:10624800F7B5044646686846FFF737FF6768A368EE
:106258009F4214DB0137002F0BDDF800FFF77AFBB4
:10626800054600B394E8060001EBC202FFF778FF89
:1062780000E000252068FFF775FB2560A76023680C
:10628800626803EBC60503EBC202294605F1080064
:10629800FFF766FF1DB169462846FFF70EFF6368E2
:1062A80001336360012501A8FEF7A4F9284603B06D
:1062B800F0BD70B504684368054604EBC306A64202
:1062C80004D0201DFEF796F90834F8E72868FFF790
:1062D80049FB284670BD10B5044638B1FFF7E9FF01
:1062E80020460C21BDE8104001F0CEBD10BD10B510
:1062F800044638B1FFF7DDFF20460C21BDE8104009
:1063080001F0C2BD10BD000037B500250446056088
:1063180045608560C560056145618561C561284640
:10632800FFF7A4F820B1254A29460A20FFF736FAD4
:1063380001230DF1030101A88DF80330FFF7D9FE01
:106348002569019B23610022019235B12846FFF798
:10635800BEFE1021284601F097FD01A8FFF7D8FEE0
:106368000120FDF794FE636960611BB101211846A5
:1063780001F08AFD0C20FDF78AFE034618B10022C1
:10638800026042608260A069A36108B1FFF7A3FFC1
:106398000C20FDF77CFE034618B100220260426023
:1063A8008260E069E36108B1FFF7A1FF002221469E
:1063B8000348FFF763F8204603B030BD35540D009D
:1063C800BD640D0010B50A4C2368DB070ED42046C7
:1063D800FDF763FE50B10748FFF796FF2046FDF72B
:1063E80061FE054A0549034801F040FD014810BD1A
:1063F8007CE303205CE3032018DD032009640D001F
:1064080010B50446C06908B1FFF771FFA06908B16B
:10641800FFF761FF606910B1012101F035FD04F15A
:106428001000FFF775FE204610BD000073B500256B
:106438000560456006462020FDF729FE0446B0B1F8
:10644800034601A903F8015BC0F801505D604FF6EF
:10645800FF73C3827F23C0F80A50C0F80E50C0F8FB
:10646800125003761C308DF80450FFF742FE0023CB
:1064780014200193FDF70BFE28B1012343608360CC
:10648800064B0360046173683460706001A801936F
:10649800FEF7B0F8304602B070BD00BF70980D002E
:1064A80013B54FF0000101AA0446FFF7BFFF2046CD
:1064B80002B010BDF0B504468BB00D46002900F0BF
:1064C800A58003A8FFF77EFC6368033B072B00F257
:1064D8009A80DFE803F0044498989898808B06A87F
:1064E800FFF7DEFF069BA2899A8262895A82228977
:1064F8001A822289DA81228BDA822246A17D52F819
:10650800100F04909288ADF814200498BDF8142058
:10651800D971C3F80100A3F805202B6813B1A96845
:1065280006A89847A37B012B069B0BBF02220122DA
:106538001A701A700CBFAC69EC696368002B0ADC2E
:1065480006A908A8FFF7B9FD08A92046FFF778FEB5
:1065580009A8FEF74FF807A8FEF74CF853E0A18901
:106568002846FFF781FD044600284CD06B680BB124
:10657800E968984723681A78012A04D12146E8690E
:10658800FFF718FE3FE0DA69A8691368516800262A
:1065980003EBC10199420DD01D68AA69ED6902EBB0
:1065A800C505954204D052F8087B87F85C60F8E787
:1065B8000833EFE723684FF6FF710022D9827F2165
:1065C8001A701976C3F80A20C3F80E20C3F81220EF
:1065D800FFF7B6FD17E0A18A2846FFF745FD90B101
:1065E800E18A0090E368226928690AE0A18A2846BE
:1065F800FFF73AFD38B10568E18A0090E36822693F
:10660800E869FFF79EFC03A8FFF7EAFB0BB0F0BDB3
:10661800024800230360FEF781BF00BF80E3032028
:10662800F8B506460D468F180024BD420CD03368D5
:1066380015F8011B9B6830469847002801DB044485
:10664800F3E7002C08BF04462046F8BD70B50546A0
:106658000C46084649B102F00CFC2B68024621465C
:106668002846DB68BDE87040184770BD03689B6822
:10667800184738B50D210546FFF7F8FF0A210446EB
:106688002846FFF7F3FF204438BD38B50546FFF725
:10669800DDFF04462846FFF7ECFF204438BD30B53F
:1066A8008BB00B4600218DF82410012A98BF0A22CE
:1066B8000DF12304B3FBF2F505FB123303F0FF03DE
:1066C800092B94BF30333733DBB2214604F8013944
:1066D8002B46002DEED1FFF7B9FF0BB030BD10B43B
:1066E8002AB903685DF8044B9B68C9B21847D2B24F
:1066F8005DF8044BFFF7D3BFFFF7F1BF2DE9F04179
:1067080007460E4615462AB90368C9B29B68BDE814
:10671800F04118470A2A02D1002901DA04E0D2B26E
:10672800BDE8F041FFF7BBBF2D21FFF79FFF2A46C9
:10673800044671423846FFF7B2FF2044BDE8F081B5
:106748002DE9F04757EC106B82460D4610EE102AE3
:106758003B4610EE100A394602F044F908B14849A0
:1067680012E027F000494FF0FF32464B30464946C9
:1067780002F038F968B94FF0FF32424B30464946CB
:1067880002F012F928B940495046FFF75FFFBDE80B
:10679800F0874FF060423D4B3046394602F018F919
:1067A80008B13B49F0E74FF060423A4B3046394672
:1067B80002F0F0F80028F4D10022002330463946D0
:1067C80002F0E8F840B12D215046FFF74FFF07F1DE
:1067D800004304461F4600E004462F494FF00008D6
:1067E80000205FFA88F39D4206D900222B4B01F066
:1067F80089FF08F10108F4E732463B4601F0A6FCA0
:106808000F46064602F02CF90A22014680465046F9
:10681800FFF745FF04447DB3404601F0D3FD02462F
:106828000B463046394601F08FFC06460F46504667
:106838001B49FFF70BFF0444184B0022304639462A
:1068480001F036FE0F46064602F0E2F80A2201463B
:1068580080465046FFF752FF0444404601F0C2FD0F
:1068680002460B463046394601F06EFC013D15F0F4
:10687800FF0506460F46DFD12046BDE8F08700BF7A
:1068880084980D00FFFFEF7F8C980D00FFFFEF410C
:1068980088980D00FFFFEFC10000E03F0000244092
:1068A800BE960D0038B5C9B20546FFF749FF044644
:1068B8002846FFF7DEFE204438BD0CB42DE9F0432E
:1068C80087B000AF07F13804054654F8049B3C60D4
:1068D8000E4623464A461421381DFFF76BF8132845
:1068E80005D8391D2846FFF7B1FE044613E000F12C
:1068F800080323F00703E846ADEB030D411C2346CC
:106908004A4668463C60FFF755F869462846FFF74F
:106918009DFE0446C5461EB12846FFF7AAFE04445C
:1069280020461C37BD46BDE8F04302B07047000062
:10693800014B024A1A60704784E30320A7960D00B2
:10694800F0B5144B144F1E68144B064418683B6886
:1069580006449E428BB01BD00AA801AD40F8286DB2
:1069680002F0FCF8436903F26C73436104460FCCF0
:106978000FC50FCC0FC5D4F800E0C5F800E001AD95
:106988000FCD074C0FC40FCD0FC43E60C4F800E014
:106998000BB0F0BDB8E30320B4E30320B0E3032059
:1069A80088E3032008B50020FEF7C4FF28B1FEF7EE
:1069B800A9FF80F00100C0B208BD012008BD000099
:1069C80008B5FFF7BDFF014B986808BD88E30320B1
:1069D80008B5FFF7B5FF014B586808BD88E30320E9
:1069E80008B5FFF7ADFF014B186808BD88E3032021
:1069F80010B50020FEF732FD044668B9FEF7DEFE4A
:106A080001280BD12046FEF709FF38B9FFF7CAFF66
:106A180030B9FEF76FFFF9E7012010BD002010BD67
:106A2800FFF7C0FF0020FEF719FD003018BF012056
:106A380010BD08B5FFF7DCFFBDE80840FEF706BD4E
:106A4800024B1A68024B1A60704700BF60DC0320D3
:106A5800ACE303200021FEF7C1BE10B5036804466D
:106A68009B689847A368013BA3602BB9236820461D
:106A7800DB68BDE81040184710BD000010B5064B94
:106A880003600446806928B14368013B43600BB941
:106A9800FFF7E3FF204610BDA09A0D0010B504468D
:106AA800FFF7ECFF20461C2101F0EEF9204610BD4F
:106AB80010B50446FDF7B2FB204610BD13B50B46D2
:106AC800044603C88DE8030093E8030084E8030044
:106AD8009DE8030083E8030002B010BD0348044AA0
:106AE80004490023836001F0C1B900BFBCE303205F
:106AF80018DD0320B96A0D0008B50C4B33B100F05E
:106B0800D9FB03681B699847002809DC084B63B167
:106B180000F058FC03681B699847002803DC08BD8F
:106B2800AFF30080F2E7AFF3008008BD000000007B
:106B38000000000008B5FFF7DFFFFEF77FFC014B00
:106B4800186008BD08E7032007B5002300931A461C
:106B58006FF07701FEF774FE03B05DF804FB0000E8
:106B680007B543880A2B08D0502B09D1094B1B685D
:106B78003BB103B05DF804EB1847FFF7E5FF06E00B
:106B8800002300931A466FF07701FEF759FE03B011
:106B98005DF804FBCCE3032010B5FEF73FFC044688
:106BA80002F012F9074B13B12046AFF30080002121
:106BB8000448FEF7C7FE00210348BDE81040FEF771
:106BC80035BE00BF00000000696B0D007047002053
:106BD800704710B51021044601F056F9204610BD43
:106BE80008B508B1FFF7F5FF08BD38B5C468ECB1C2
:106BF8002378022B02D1E068FEF7B4FE656835B150
:106C08002846FDF70BFB1021284601F03DF9A56841
:106C180035B12846FDF702FB1021284601F034F96A
:106C280020461421BDE8384001F02EB938BD13B50F
:106C3800044691E8050000234B600B602060626009
:106C480001A801930093FDF7D5FC204602B010BDC2
:106C5800F7B50C4602AD54F8043B45F8083D064626
:106C68000F4601A82146FFF721FA29463046FFF7CB
:106C7800DEFF01A8FDF7BEFC2046FDF7BBFC384649
:106C8800082101F001F9304603B0F0BD826810B563
:106C98000AB901F00AF9C368BDE81040184708B5F9
:106CA800006800F11001FFF7F1FF08BD826810B518
:106CB8000AB901F0FAF8C368BDE81040184708B5EA
:106CC800006800F11001FFF7F1FF08BD38B5002397
:106CD80083608B6804460D462BB102229847EB6807
:106CE800E360AB68A360204638BD00002DE9F041A1
:106CF8004FF69C7386B00468B1F904208B8000239A
:106D08000F688DF800300B604FF00200D4E84F1F79
:106D1800994203D1C4E8450F002DF7D102D08DF870
:106D280000106BE014F10C051EBFE76022821F46BD
:106D38000123BFF35F8F0020637004F10803BFF3E2
:106D48005F8F53E8006F43E80002002AF9D1BFF3D0
:106D58005F8F002E52D0FEF751FD20B129463046F4
:106D6800FFF794FF43E031466846FFF7AFFFE0685E
:106D7800B4F9105008B102F061F804901020ADF891
:106D88001450FDF784F9054630B34FF00008C0F8F9
:106D980008801820FDF77BF90446C0B1C0F80880C8
:106DA80001466846FFF78AFE029BA268A360039B20
:106DB8000292E268E360BDF81430A3824FF69C7338
:106DC800ADF81430049B03922361CDF810800E4B6C
:106DD800EB600E4B2C60AB600498FEF7C3FD684671
:106DE800FDF71CFA002229460948FEF70FFD304638
:106DF800FDF714FA1021304601F046F83846FEF740
:106E0800B1FD06B0BDE8F081A76C0D00056F0D005F
:106E180019740D002DE9F04F8BB007AD4FF0000B42
:106E28000646994614200C230F4690469DF850A01C
:106E3800C5F804B0C5F808B00793FDF728F904466B
:106E480038B180F800B080F801B0C0F804B0C0F8DC
:106E580008B00023102003940493FDF718F928B113
:106E6800012343608360234B0360C4600490224B7A
:106E780008930820FDF70BF9044628B1039B40F856
:106E8800043B04A9FFF712F900955FFA8AF34A4612
:106E9800414638460994FEF73DFDB8B9039B5B7837
:106EA80003F0FF0293B94FF69C7305A903A8059256
:106EB800ADF81830FFF71AFF0598FEF753FD05A83F
:106EC8000999FFF7C5FE06A8FDF794FB039B0593F8
:106ED80004A906A8FFF7EAF805A93046FFF7A7FEB8
:106EE80006A8FDF787FB04A8FDF784FB30460BB026
:106EF800BDE8F08F98990D0071700D00022AF8B561
:106F0800044606D0032A17D0012A21D10B68036052
:106F18001EE018200E68FDF7BAF8054650B1314654
:106F2800FFF7D4FE3069B6F9147008B101F086FF96
:106F38002861AF8225600BE004684CB12069FEF738
:106F480011FD2046FDF76AF91821204600F09CFF44
:106F58000020F8BD38B5002383608B6804460D46D1
:106F68002BB102229847EB68E360AB68A360204628
:106F780038BD022A70B5044606D0032A11D0012A6A
:106F880018D10B68036015E014200E68FDF77FF830
:106F9800054620B13146FFF7DDFF337C2B742560B1
:106FA80008E0046834B12046FDF738F9142120467A
:106FB80000F06AFF002070BDF0B5002387B00C46D2
:106FC800BFF35F8F50E8006F40E80032002AF9D124
:106FD800BFF35F8F002E3FD01846FEF70FFC074621
:106FE80020B121463046FFF761FE2EE0314601A868
:106FF800FFF7B0FF23788DF814301020FDF747F81D
:107008000546D0B187601420FDF741F8044678B1F1
:107018008760014601A8FFF751FD039BA268A360A2
:10702800049B0392E268E3609DF814300492237491
:107038000A4BEB600A4B2C60AB6001A8FDF7EEF839
:10704800002229460748FEF7E1FB3046FDF7E6F83F
:107058001021304600F018FF07B0F0BDC76C0D00D6
:107068007B6F0D0019740D0030B585B004460D46D0
:1070780068461146FFF7ECFD7CB124B228460DB1F5
:1070880001F0DCFE029002A96846ADF80C40FFF75B
:107098002DFE0298FEF766FC1DE000988DF808406A
:1070A8004FF00102D0E84F3FA34203D1C0E8412F7F
:1070B8000029F7D102D08DF808300CE010F10C014E
:1070C8004FF0010318BF0373BFF35F8F043000F85C
:1070D800033CFFF771FF01A8FDF78CFA05B030BD3E
:1070E800704710B51821044600F0CEFE204610BDAA
:1070F800F0B5037D062B8DB00E4600F104074FF066
:10710800000402D000F1080518E00CAD394605F876
:10711800304D2F232A460A20FEF720FA284601F090
:10712800A8FE33680246DB682946304698470FE0D8
:1071380024B12E213046FFF799FA044415F8011DB1
:107148000A223046FFF7D8FABD420444F0D120465F
:107158000DB0F0BD10B5054B0446112240F8043BB4
:10716800002101F028FE204610BD00BFB4990D0093
:107178000346074A10B543F8042B01F1100251F8F1
:10718800044B43F8044B9142F9D10A781A7010BDA8
:10719800B4990D00037D042B01D1406808E0062B4B
:1071A8000AD1436853B1836843B1C36833B10069F6
:1071B800003018BF012070470020704718467047FC
:1071C80010B59DF8084044EA032343EA024242EA24
:1071D800016104234160037510BD37B50D788B78C4
:1071E8004A78C97800912946FFF7EAFF03B030BD15
:1071F80041747047704708B50021007CFEF7B6FA65
:1072080030EA200028BF4FF0FF3008BD08B5012143
:10721800007CFEF7ABFA30EA200028BF4FF0FF30C1
:1072280008BD08B5007CFEF799FA20EAE07008BDB1
:1072380008B5007CFEF78AFA20EAE07008BD007CF9
:10724800FEF7A4BA10B51421044600F01DFE20462E
:1072580010BD38B50446007C0D46FEF77FFA0028BD
:1072680001DC607C28B12946207CFEF787FA20EAF9
:10727800E07038BD10B50446002363604FF47A739C
:10728800A360054B236001230846217463741146EB
:10729800FEF74CFA204610BDC8990D000022007C6C
:1072A800FEF74CBA10B514220446002101F083FD04
:1072B800204610BD30B50E4D87B001A8FFF7F2FF8C
:1072C800296811F0010410D12846FCF7E6FE60B1E8
:1072D80001AA21460748FFF7CDFF2846FCF7E2FE42
:1072E800054A0649034800F0C1FD024807B030BD11
:1072F800D0E30320D4E3032018DD0320FD710D0043
:1073080070474174704708B5007CFEF777F920EAAA
:10731800E07008BD08B5007CFEF748F920EAE07087
:1073280008BD08B5007CFEF751F930EA200028BFF7
:107338004FF0FF3008BD08B5007CFEF73FF930EA92
:10734800200028BF4FF0FF3008BD007CFEF746B98B
:1073580010B51421044600F097FD204610BD70B505
:10736800457C04460E4625B9007CFEF747F90028FF
:1073780005DD3146207CBDE87040FEF70FB9284690
:1073880070BD000010B50446084611460022626030
:107398004FF47A72A260054A226001222074627456
:1073A8001A46FEF7F3F8204610BD00BFF8990D0005
:1073B8000023007CFEF72AB90022FFF7F9BF007C02
:1073C800FEF714B938B50C4D296811F0010411D134
:1073D8002846FCF762FE68B1084A094B094821466D
:1073E800FFF7D0FF2846FCF75DFE074A0749054826
:1073F80000F03CFD034838BD80E4032084E403200A
:10740800FCE30320E8E3032018DD032009730D00E3
:1074180010B5836804460BB900F047FDC368984768
:10742800A3681BB103222146204698472046102115
:10743800BDE8104000F028BD7047F8B5064615466F
:107448000C468F18BC4206D0336814F8011B9B68A1
:1074580030469847F6E72846F8BD0022007CFEF73C
:10746800FDB80021007CFEF701B90021007CFEF781
:1074780005B90021007CFEF709B90021007CFEF760
:107488000DB910B51421044600F0FEFC204610BDCD
:1074980010B504464FF47A730846A3600021044BE4
:1074A800207461602360FEF709F9204610BD00BF13
:1074B800289A0D0000231A461946007CFEF7AEB83C
:1074C80013B50024007C0094FEF7B0F8C0B202B0F7
:1074D80010BD0123FFF7F4BF0123D2B2C9B2FFF7F1
:1074E800EFBF0022007CFEF7A9B80022007CFEF75F
:1074F800ADB80121FFF7F9BF0021007CFEF7D6B82F
:10750800002211464068FEF7DDB9002211464068A6
:10751800FEF7E8B900224068FEF7DCB9002281F0E6
:1075280001014068FEF7C6B900231A4619464068AB
:10753800FEF7B8B900231A4619464068FEF7AAB9FB
:10754800002211464068FEF79DB9002211464068A6
:10755800FEF788B9002202214068FEF78BB90023A4
:107568001A464068FEF776B910B103685B68184799
:107578007047000038B50C4B03600446D0F8CC01C6
:1075880008B1FCF788FDD4F8C45135B12846FCF79A
:1075980061FE0421284600F077FCA06808B1FFF7D7
:1075A800E3FF204638BD00BF509A0D0038B50D4C9A
:1075B8000D4B23600025022304F5E4706360A56089
:1075C800C4F8C451C4F8C851FDF7A8FF074BC4F864
:1075D800CC5123602046064A0649BDE8384000F0F1
:1075E80045BC00BF08E50320389B0D00509A0D00EC
:1075F80018DD03207D750D0037B502AC036804F86B
:10760800011DDD6B01224FF0FF332146A84703B06F
:1076180030BD10B40368DC6B4FF0FF33A4465DF84F
:10762800044B604737B502AC036804F8011DDD6BF5
:10763800214613460122A84703B030BD704738B52C
:1076480043691A68002A044605DAB3F88620B3F8B5
:1076580084309A4201D001250BE003681B699847E2
:10766800002814BF0125002503D123682046DB6AC2
:107678009847284638BD43691868C043C00F70470B
:1076880070470020704710B51421044600F0FCFB39
:10769800204610BDFCF7FDBC2DE9F0439846036871
:1076A80093B0DB6A0C4606461746984712AB00258E
:1076B80043F8485D2A4629462046FDF76FFE002814
:1076C8003ADB009B002B39D05B69002B36D006A82B
:1076D800FFF740FD009B5C696378022B01D1211DF7
:1076E80013E00A2B14D11122294601A801F063FBEB
:1076F800A36833BBE36823BB4FF6FF702569FDF72A
:1077080035FF85421DD104F1140106A8FFF765FD78
:1077180006A8FFF73FFD88B1336807ADD3F820907E
:10772800184B0C930FCD0DAC0FC42B6823703A4641
:1077380043460CA93046C84704461CE04FF0FF34C6
:1077480019E004F1080301AD1834186859682A468D
:1077580003C20833A3421546F7D1062301A90CA892
:107768000DAD8DF81430FFF703FD0FCD07AC0FC436
:107778002B682370CCE70098FDF708FE204613B06D
:10778800BDE8F083B4990D007FB51646002242602B
:10779800029203925A1C04460D4608D04FF47A729E
:1077A800B3FBF2F1029102FB11314A430392606983
:1077B8000823009341F205026B4440F6FF7100680C
:1077C800FDF784FF002808DB60690023324629465C
:1077D8000068FDF79BFF002804DAFEF703F9036849
:1077E8006360002004B070BD10B5036804469B6850
:1077F8009847A368013BA3602BB923682046DB6840
:10780800BDE81040184710BD70B504464D69054BDA
:1078180044F8043B8C3506460FCD0FC42B68237003
:10782800304670BDB4990D0010B54369B3F8862091
:10783800B3F884309A42044605D06269B2F88430BD
:107848001344187910BD03681B6998470028F4D1C0
:107858004FF0FF3010BD10B54369B3F88620B3F878
:1078680084309A42044608D06269B2F88430591CC0
:107878001344A2F88410187910BD03681B6998474F
:107888000028F1D14FF0FF3010BDF8B54369174615
:10789800B3F88620B3F884309A4205460E4606D1DE
:1078A80003681B69984710B94FF0FF3414E0696901
:1078B800B1F88430B1F88640E41ABC4228BF3C468F
:1078C800194422460431304601F04FFA6A69B2F889
:1078D80084302344A2F884302046F8BD426900234E
:1078E800A2F884304269A2F8863070472DE9F04149
:1078F800984603680D468AB0DB6A064617469847DD
:107908002B7D7469042B0CBF02200A20062201215A
:10791800FDF704FF206073691C68002C5BDB3046B0
:10792800FFF7DCFFB8F1000F17D0002303A95FFAB7
:1079380088F00393ADF81030FDF768FD002849DBA7
:1079480070690623009341F20B0203AB40F6FF7106
:107958000068FDF7BBFE00283CDB1C242246002102
:1079680003A801F028FA2B7D8DF80C40042B0CD1CC
:10797800022338468DF80D30FDF700FEADF80E00F5
:107988006868FDF7F3FD049013E00A2338468DF884
:107998000D30FDF7F3FD05ACADF80E002B1D05F11C
:1079A800140718685968224603C20833BB421446B4
:1079B800F7D173691C2203A91868FDF797FE002800
:1079C80008DB2C1D0FCC76698C360FC62368337004
:1079D800012404E0044633683046DB6A98472046B1
:1079E8000AB0BDE8F08110B543690446186800285C
:1079F80001DBFDF773FE63694FF0FF321A606069BF
:107A0800112200218C3001F0D6F92046BDE8104043
:107A1800FFF764BF30B54269B2F886308BB00446D0
:107A28001BB1B2F884209A4240D0636918680028D4
:107A38003FDBB3F886507F2D3BD8191DC5F1800276
:107A480008232944FDF75AFE00280CDD6369B3F8C2
:107A580086200AB9A3F884206269B2F886301844EF
:107A6800A2F8860025E0FDF7BDFF03680B2B20D0A8
:107A7800FDF7B8FF03680B2B1BD0202300250293CA
:107A88000395FDF7AFFF036801930E4B009302AA1D
:107A98002B460D493220FDF789FE63691868FDF70A
:107AA8001DFE63694FF0FF321A6002E0FFF716FF10
:107AB800BBE76269B2F88630B2F88400181A0BB0D6
:107AC80030BD00BFEB9A0D00E49A0D0010B50023FD
:107AD80004460160A0F88430A0F886308830FFF7AB
:107AE80039FB204610BD00004FF47A7270B50023B0
:107AF8008260144A43600260436183610446A020A7
:107B08000E46FCF7C4FA054610B13146FFF7DEFF12
:107B18001420FCF7BCFA034628B1012242608260B7
:107B2800094A02600561A0696561A36128B14368DB
:107B3800013B43600BB9FFF757FE2046FFF7CEFE27
:107B4800204670BDA09A0D00849A0D0010B54FF024
:107B5800FF310446FFF7C8FF204610BD10B50446A4
:107B68000068002801DBFDF7B9FD204610BD10B5FF
:107B780004692046FFF7F2FF24B12046BDE8104013
:107B8800FCF787BA10BD002211464068FDF77ABE9F
:107B9800002211464068FDF795BE00221146406854
:107BA800FDF7A0BE00224068FDF794BE002281F0D8
:107BB80001014068FDF77EBE00231A461946406859
:107BC800FDF770BE00231A4619464068FDF762BEED
:107BD800002211464068FDF745BE00220221406898
:107BE800FDF748BE00231A464068FDF733BE000083
:107BF800024B04225A60024A1A607047D8E60320F2
:107C0800049B0D0000231A464068FDF723BE00229E
:107C180002214068FDF72EBE002211464068FDF79C
:107C280021BE002211464068FDF72CBE00231A46EB
:107C380019464068FDF72EBE00231A4619464068CB
:107C4800FDF730BE002281F001014068FDF732BE29
:107C580000224068FDF73EBE002211464068FDF74D
:107C680041BE002211464068FDF72CBE2DE9F043C5
:107C7800002495B016460D460746FFF76BFA2146D5
:107C880020220CA8009401F096F840230C9321467A
:107C98006B460CAA3046FDF781FB0446002844D108
:107CA800024601216868FDF7EDFD02218046224663
:107CB8006868FDF7E7FD009E81462146002E34D016
:107CC800002932D17368022B02D00A2B09D02AE08E
:107CD800B8F1000F27D0716938460431FFF77DFAF3
:107CE80020E0B9F1000F1ED07469112201A801F03B
:107CF80062F806238DF8143001AD04F10803183436
:107D0800186859682A4603C20833A3421546F7D1B2
:107D180001A906A807ADFFF72BFA0FCD3C1D0FC42C
:107D28002B6823700121F669C8E70098FDF72EFB40
:107D3800384615B0BDE8F083024B034A1A600022AA
:107D48005A607047E0E60320389B0D0010B50446E2
:107D58000F48FDF7A9FE28B1A4F10B03022B01D8A7
:107D6800002010BD00F062F8FFF7C6FB08B1012C37
:107D7800F6D9FFF727FBFFF722FB18B1A4F1090397
:107D8800012BEDD9232C8CBF0020012010BD00BF92
:107D9800E8E60320232838B504460D460AD8FF290B
:107DA80008D0FFF7D3FF28B129462046BDE8384060
:107DB800FDF704BB38BD38B504460D46FDF706FB94
:107DC800FF2810D0062804D84D2323FA00F0C30753
:107DD80009D42046FFF7BAFF28B129462046BDE856
:107DE8003840FDF7FBBA38BD70B50C4C0C4E0D4D44
:107DF80000212046FDF744FE20460B4C324629461A
:107E080000F034F801212046FDF73AFE32462946B3
:107E18002046BDE8704000F029B800BFE8E603201E
:107E280018DD0320795A0D00F8E6032038B50B4D0C
:107E3800296811F001040FD12846FCF72EF958B132
:107E480021460748FFF724FB2846FCF72BF9054A8B
:107E58000549034800F00AF8014838BD0CE703203B
:107E680010E7032018DD032041740D000B4601467E
:107E7800184600F065BE0000024B1868BFF35F8F1C
:107E8800704700BF24E70320FCF703B910B50028AA
:107E980014BF044601242046FDF75CFD20B9FFF716
:107EA800EBFF08B18047F6E710BD08B5FDF78AFD7E
:107EB800184B1A68D1075CBF01221A60164B1A6862
:107EC800D2075CBF01221A60144B1A68D0075CBF46
:107ED80001221A60124B1A68D1075CBF01221A608E
:107EE800104B1A68D2075CBF01221A600E4B1A6841
:107EF800D0075CBF01221A600C4B1A68D1075CBF1F
:107F080001221A600A4B1A68D2075CBF01221A6064
:107F1800704700BF44E7032040E703203CE7032005
:107F280038E7032034E7032030E703202CE7032059
:107F380028E70320244B1A68D0075CBF01221A6087
:107F4800224B1A68D1075CBF01221A60204B1A68BD
:107F5800D2075CBF01221A601E4B1A68D0075CBFAB
:107F680001221A601C4B1A68D1075CBF01221A60F3
:107F78001A4B1A68D2075CBF01221A60184B1A689C
:107F8800D0075CBF01221A60164B1A68D1075CBF84
:107F980001221A60144B1A68D2075CBF01221A60CA
:107FA800124B1A68D0075CBF01221A60104B1A687E
:107FB800D1075CBF01221A600E4B1A68D2075CBF5A
:107FC80001221A60704700BF74E7032070E703209E
:107FD8006CE7032068E7032064E7032060E70320D9
:107FE8005CE7032058E7032054E7032050E7032009
:107FF8004CE7032048E70320244B1A68D0075CBFEE
:1080080001221A60224B1A68D1075CBF01221A604C
:10801800204B1A68D2075CBF01221A601E4B1A68EF
:10802800D0075CBF01221A601C4B1A68D1075CBFDD
:1080380001221A601A4B1A68D2075CBF01221A6023
:10804800184B1A68D0075CBF01221A60164B1A68D1
:10805800D1075CBF01221A60144B1A68D2075CBFB3
:1080680001221A60124B1A68D0075CBF01221A60FD
:10807800104B1A68D1075CBF01221A600E4B1A68B0
:10808800D2075CBF01221A60704700BFA4E7032033
:10809800A0E703209CE7032098E7032094E7032048
:1080A80090E703208CE7032088E7032084E7032078
:1080B80080E703207CE7032078E70320184B1A6841
:1080C800D1075CBF01221A60164B1A68D2075CBF41
:1080D80001221A60144B1A68D0075CBF01221A608B
:1080E800124B1A68D1075CBF01221A60104B1A683C
:1080F800D2075CBF01221A600E4B1A68D0075CBF1A
:1081080001221A600C4B1A68D1075CBF01221A6061
:108118000A4B1A68D2075CBF01221A60704700BF79
:10812800C4E70320C0E70320BCE70320B8E7032027
:10813800B4E70320B0E70320ACE70320A8E7032057
:1081480081F0004102E000BF83F0004330B54FEA00
:1081580041044FEA430594EA050F08BF90EA020F6D
:108168001FBF54EA000C55EA020C7FEA645C7FEA00
:10817800655C00F0E2804FEA5454D4EB5555B8BF23
:108188006D420CDD2C4480EA020281EA030382EA94
:10819800000083EA010180EA020281EA0303362D26
:1081A80088BF30BD11F0004F4FEA01314FF4801CF9
:1081B8004CEA113102D0404261EB410113F0004F0B
:1081C8004FEA03334CEA133302D0524263EB4303C2
:1081D80094EA050F00F0A780A4F10104D5F1200E60
:1081E8000DDB02FA0EFC22FA05F2801841F10001BB
:1081F80003FA0EF2801843FA05F359410EE0A5F18F
:1082080020050EF1200E012A03FA0EFC28BF4CF0BF
:10821800020C43FA05F3C01851EBE37101F0004575
:1082280007D54FF0000EDCF1000C7EEB00006EEB82
:108238000101B1F5801F1BD3B1F5001F0CD349080C
:108248005FEA30004FEA3C0C04F101044FEA445263
:1082580012F5800F80F09A80BCF1004F08BF5FEAEA
:10826800500C50F1000041EB045141EA050130BDCA
:108278005FEA4C0C404141EB010111F4801FA4F16D
:108288000104E9D191F0000F04BF01460020B1FAC2
:1082980081F308BF2033A3F10B03B3F120020CDAFA
:1082A8000C3208DD02F1140CC2F10C0201FA0CF0D8
:1082B80021FA02F10CE002F11402D8BFC2F1200C3D
:1082C80001FA02F120FA0CFCDCBF41EA0C019040F3
:1082D800E41AA2BF01EB0451294330BD6FEA04043C
:1082E8001F3C1CDA0C340EDC04F11404C4F1200227
:1082F80020FA04F001FA02F340EA030021FA04F339
:1083080045EA030130BDC4F10C04C4F1200220FA8F
:1083180002F001FA04F340EA0300294630BD21FACD
:1083280004F0294630BD94F0000F83F4801306BF93
:1083380081F480110134013D4EE77FEA645C18BF87
:108348007FEA655C29D094EA050F08BF90EA020F1E
:1083580005D054EA000C04BF1946104630BD91EA16
:10836800030F1EBF0021002030BD5FEA545C05D119
:108378004000494128BF41F0004130BD14F5800458
:108388003CBF01F5801130BD01F0004545F0FE41CC
:1083980041F470014FF0000030BD7FEA645C1ABF01
:1083A800194610467FEA655C1CBF0B46024650EA38
:1083B800013406BF52EA033591EA030F41F4002164
:1083C80030BD00BF90F0000F04BF0021704730B5EA
:1083D8004FF4806404F132044FF000054FF00001BF
:1083E80050E700BF90F0000F04BF0021704730B580
:1083F8004FF4806404F1320410F0004548BF404255
:108408004FF000013EE700BF42004FEAE2014FEAA9
:1084180031014FEA02701FBF12F07F4393F07F4F84
:1084280081F06051704792F0000F14BF93F07F4FB6
:10843800704730B54FF4607401F0004521F00041F9
:1084480020E700BF50EA010208BF704730B54FF07F
:1084580000050AE050EA010208BF704730B511F084
:10846800004502D5404261EB41014FF4806404F1BC
:1084780032045FEA915C3FF4DCAE4FF003025FEA3E
:10848800DC0C18BF03325FEADC0C18BF033202EBC6
:10849800DC02C2F1200300FA03FC20FA02F001FA20
:1084A80003FE40EA0E0021FA02F11444C1E600BFBF
:1084B80070B54FF0FF0C4CF4E06C1CEA11541DBF72
:1084C8001CEA135594EA0C0F95EA0C0F00F0DEF83D
:1084D8002C4481EA030621EA4C5123EA4C5350EA22
:1084E800013518BF52EA033541F4801143F4801373
:1084F80038D0A0FB02CE4FF00005E1FB02E506F004
:108508000042E0FB03E54FF00006E1FB03569CF058
:10851800000F18BF4EF0010EA4F1FF04B6F5007F5E
:1085280064F5407404D25FEA4E0E6D4146EB0606D0
:1085380042EAC62141EA55514FEAC52040EA5E5059
:108548004FEACE2EB4F1FD0C88BFBCF5E06F1ED803
:10855800BEF1004F08BF5FEA500E50F1000041EB3A
:10856800045170BD06F0004646EA010140EA0200E7
:1085780081EA0301B4EB5C04C2BFD4EB0C0541EA09
:10858800045170BD41F480114FF0000E013C00F31E
:10859800AB8014F1360FDEBF002001F0004170BD42
:1085A800C4F10004203C35DA0C341BDC04F114045B
:1085B800C4F1200500FA05F320FA04F001FA05F2E7
:1085C80040EA020001F0004221F0004110EBD370B4
:1085D80021FA04F642EB06015EEA430E08BF20EAE0
:1085E800D37070BDC4F10C04C4F1200500FA04F383
:1085F80020FA05F001FA04F240EA020001F0004115
:1086080010EBD37041F100015EEA430E08BF20EA87
:10861800D37070BDC4F1200500FA05F24EEA020ECF
:1086280020FA04F301FA05F243EA020321FA04F0FE
:1086380001F0004121FA04F220EA020000EBD370B5
:108648005EEA430E08BF20EAD37070BD94F0000FB5
:108658000FD101F00046400041EB010111F4801FE9
:1086680008BF013CF7D041EA060195F0000F18BF9A
:10867800704703F00046520043EB030313F4801FD6
:1086880008BF013DF7D043EA0603704794EA0C0F90
:108698000CEA135518BF95EA0C0F0CD050EA4106A6
:1086A80018BF52EA4306D1D181EA030101F0004123
:1086B8004FF0000070BD50EA410606BF104619464B
:1086C80052EA430619D094EA0C0F02D150EA013657
:1086D80013D195EA0C0F05D152EA03361CBF104698
:1086E80019460AD181EA030101F0004141F0FE4137
:1086F80041F470014FF0000070BD41F0FE4141F4BB
:10870800780170BD70B54FF0FF0C4CF4E06C1CEABA
:1087180011541DBF1CEA135594EA0C0F95EA0C0F6F
:1087280000F0A7F8A4EB050481EA030E52EA03352A
:108738004FEA013100F088804FEA03334FF080554B
:1087480045EA131343EA12634FEA022245EA111578
:1087580045EA10654FEA00260EF000419D4208BF29
:10876800964244F1FD0404F5407402D25B084FEAD6
:108778003202B61A65EB03055B084FEA32024FF482
:1087880080104FF4002CB6EB020E75EB030E22BFDF
:10879800B61A754640EA0C005B084FEA3202B6EB9F
:1087A800020E75EB030E22BFB61A754640EA5C004E
:1087B8005B084FEA3202B6EB020E75EB030E22BFDE
:1087C800B61A754640EA9C005B084FEA3202B6EBDF
:1087D800020E75EB030E22BFB61A754640EADC009E
:1087E80055EA060E18D04FEA051545EA16754FEA00
:1087F80006164FEAC30343EA52734FEAC2025FEA1E
:108808001C1CC0D111F4801F0BD141EA00014FF0AC
:1088180000004FF0004CB6E711F4801F04BF01437D
:108828000020B4F1FD0C88BFBCF5E06F3FF6AFAE99
:10883800B5EB030C04BFB6EB020C5FEA500C50F129
:10884800000041EB045170BD0EF0004E4EEA1131AC
:1088580014EB5C04C2BFD4EB0C0541EA045170BDB3
:1088680041F480114FF0000E013C90E645EA060EF7
:108878008DE60CEA135594EA0C0F08BF95EA0C0F25
:108888003FF43BAF94EA0C0F0AD150EA01347FF46D
:1088980034AF95EA0C0F7FF425AF104619462CE744
:1088A80095EA0C0F06D152EA03353FF4FDAE1046A7
:1088B800194622E750EA410618BF52EA43067FF4F8
:1088C800C5AE50EA41047FF40DAF52EA43057FF488
:1088D800EBAE12E74FF0FF3C06E000BF4FF0010C93
:1088E80002E000BF4FF0010C4DF804CD4FEA410CF7
:1088F8007FEA6C5C4FEA430C18BF7FEA6C5C1BD0C4
:1089080001B050EA410C0CBF52EA430C91EA030F44
:1089180002BF90EA020F0020704710F1000F91EAA1
:10892800030F58BF994208BF90422CBFD8176FEA6F
:10893800E37040F0010070474FEA410C7FEA6C5C3D
:1089480002D150EA013C07D14FEA430C7FEA6C5C44
:10895800D6D152EA033CD3D05DF8040B704700BF70
:108968008446104662468C461946634600E000BFBE
:1089780001B5FFF7B7FF002848BF10F1000F01BD90
:108988004DF808EDFFF7F4FF0CBF012000205DF85B
:1089980008FB00BF4DF808EDFFF7EAFF34BF0120E0
:1089A80000205DF808FB00BF4DF808EDFFF7E0FF79
:1089B80094BF012000205DF808FB00BF4DF808EDCA
:1089C800FFF7CEFF94BF012000205DF808FB00BF31
:1089D8004DF808EDFFF7C4FF34BF012000205DF813
:1089E80008FB00BF4FEA410C7FEA6C5C02D150EAF9
:1089F800013C0AD14FEA430C7FEA6C5C02D152EA8F
:108A0800033C02D14FF0000070474FF0010070475F
:108A18004FEA410212F5001215D211D56FF478739E
:108A2800B3EB625212D94FEAC12343F0004343EA41
:108A3800505311F0004F23FA02F018BF404270471C
:108A48004FF00000704750EA013005D111F00040A6
:108A580008BF6FF0004070474FF00000704700BF3C
:108A68004A0011D212F5001211D20DD56FF47873A5
:108A7800B3EB62520ED44FEAC12343F0004343EAFA
:108A8800505323FA02F070474FF00000704750EA45
:108A9800013002D14FF0FF3070474FF000007047AF
:108AA8004FEA4102B2F1E04324BFB3F5001CDCF108
:108AB800FE5C0DD901F0004C4FEAC0024CEA507040
:108AC800B2F1004F40EB830008BF20F0010070476F
:108AD80011F0804F21D113F13872BCBF01F0004072
:108AE800704741F480114FEA5252C2F11802C2F1A4
:108AF800200C10FA0CF320FA02F018BF40F0010025
:108B08004FEAC1234FEAD32303FA0CFC40EA0C00D6
:108B180023FA02F34FEA4303CCE77FEA625307D113
:108B280050EA01331EBF4FF0FE4040F4400070474A
:108B380001F0004040F0FE4040F40000704700BFE4
:108B480010B5054C13462CB10A4601460220AFF376
:108B5800008010BD204610BD0000000038B5074B4E
:108B68001C68E36B05461BB92420FCF7F3FEE063A1
:108B7800E16B2846BDE8384000F002B8C8DC0320A5
:108B88002DE9F0410C46804600F08CFC2146074652
:108B9800404600F08BFC466906F26C76B307044643
:108BA80005D1642296FBF2F302FB13634BB94FF431
:108BB800C87596FBF5F305FB1365B5FA85F35B09F4
:108BC80000E001235F4A302505FB032500F09EFAEB
:108BD80000F09EFA5C4B1B68F3B17B689E4205D19E
:108BE8003968D8F80030FA6941B90AE0304600F02F
:108BF800E5F90028F4D14FF0FF330DE0934208DB8C
:108C080001E0934207DABA6B9342ACBF0023012319
:108C180002E0002300E001232362236A012B0CBF3A
:108C2800F96B396A4FF461633C2091FBF3F603FB5F
:108C38001613616893FBF0F200FB12302368891A5F
:108C4800A26861601B1A921B3B2B2360A26003DDA4
:108C5800013161603C3B04E0002B03DA01396160BB
:108C68003C33236063683B2B03DD0132A2603C3B4D
:108C780004E0002B03DA013AA2603C336360A36886
:108C8800172B22DDE2690132E261A2690132062A6C
:108C9800C8BF0022A261E268183B0132A3602369C1
:108CA800E26055F823108A4246DD01330C2B0CBFD5
:108CB80063692361A2EB0102E26001BF0133002274
:108CC8002261636108BFE26136E0002B34DAE269B1
:108CD800013AE261A269013A48BF0622A261E2684C
:108CE8001833013AE260A36032BB2369013B01D427
:108CF80023611DE00B23236163695A1E12F0030FE1
:108D0800626103F26B7305D1642193FBF1F201FBFD
:108D180012324AB94FF4C87193FBF1F201FB1233D6
:108D2800B3FA83F35B0900E0012303F5B673E3614B
:108D3800236955F82330E36000F0E9F92046BDE8DF
:108D4800F08100BFCC9C0D00E4E7032010B5013989
:108D58000244904207D010F8013B11F8014FA3429A
:108D6800F7D0181B10BD002010BD10B5431E0A44D3
:108D7800914204D011F8014B03F8014FF8E710BDF8
:108D8800884210B501EB020301D8421E0BE098425D
:108D9800FBD28118D21AD34204D013F8014D01F83E
:108DA800014DF8E710BD994204D011F8014B02F8C3
:108DB800014FF8E710BD02440346934202D003F87E
:108DC800011BFAE77047000038B5124B1C68A36B0B
:108DD8000546D3B91820FCF7BDFD43F20E33A06356
:108DE80003804AF6CD33438041F2342383804EF228
:108DF8006D63C3804DF6EC630381052343810B2328
:108E0800838101220023C0E90423A36B00221D6192
:108E18005A6138BDC8DC032010F8012B11F8013B5A
:108E2800012A28BF9A42F7D0D01A7047034611F892
:108E3800012B03F8012B002AF9D17047024B014698
:108E4800186800F003B800BFC8DC032070B50646F8
:108E580008460C4600F00DF8451C29463046FCF73C
:108E6800B9FD064618B12A462146FFF77EFF30466F
:108E780070BD034613F8012B002AFBD1181A0138DC
:108E8800704730B582B1451E013915F8013F11F818
:108E9800014FA34206D1EC431444E04201D0002B19
:108EA800F3D11C46181B30BD104630BD2DE9F047E4
:108EB80080463C48D0F800900E46354615F8014BE0
:108EC80009EB0400407800F0080000F0FF0708B143
:108ED8002E46F2E72D2C03D1B51C7478012703E048
:108EE8002B2C04BF7478B51C13B1102B0AD153E096
:108EF800302C4FD1287800F0DF00582845D16C7805
:108F0800102302354FF0FF3C0026BCFBF3FC03FBAB
:108F18000CFA6FEA0A0A304609EB040E9EF801E0E3
:108F28001EF0040F01D0303C0BE01EF0030E1AD0E7
:108F3800BEF1010F0CBF4FF0370E4FF0570ECEEBBE
:108F48000404A3420FDD002E08DB604506D801D1DA
:108F5800544503DC03FB0040012601E04FF0FF36D7
:108F680015F8014BD8E7002E07DA2223C8F800309D
:108F78004FF0FF302AB9BDE8F08707B1404272B11F
:108F880006B1691E1160BDE8F0873024002BB9D105
:108F98000823B7E70A23B5E7302CABD0B2E7BDE822
:108FA800F08700BF64DC032013460A4601460248E6
:108FB8000068FFF77BBF00BFC8DC03202DE9F74F2F
:108FC800044600F06FFA40F2B1739C4240F3968079
:108FD8006FF4F663E318A4F2B2729B1040F26D15B9
:108FE80005FB0235A4F26D726FF0630392FBF3F395
:108FF8006FF4C8622B44A5184FF4C87295FBF2F5BC
:109008001D44642394FBF2F794FBF3F602FB174725
:1090180003FB164600F13803B7FA87FE019304F004
:10902800030344604FEA5E1E014600934FF0070CAD
:109038000B7A4A2B0ED14B69009AEC1802B906B983
:1090480027B93B2BD4BF0023012300E0002323448E
:10905800013B3FE0442B02D14B692B443AE0009B93
:109068002BB9002E0CBFF0464FF0010800E0F04687
:10907800244BCC68302202FB0838A8F1040AA94620
:109088000123A34204DA5AF804BF0133D944F8E7AC
:1090980009F1040393FBFCFBCBEBCB0A012CCAEBD5
:1090A800030A4B69B8BF012404F18044B3EB0A0AF0
:1090B8000B6904F1FF3403F1FF3348BF0AF1070AD3
:1090C800C3EBC30358F824405344A34201DB073BD6
:1090D800FBE74B448C690C4A02FB03430C6A2344AC
:1090E80041F81C3F019B9942A2D1C369826B93420C
:1090F800ACBF002301230360012000E0002003B07F
:10910800BDE8F08FCC9C0D0080510100704770477E
:10911800014B186800F002B8C8DC03202DE9F04FB5
:109128008DB0074600F0BEF9B049B14E0446384646
:1091380000F0B0F9054660B9AE4BAF4A1860AF4BC6
:109148001860AF4B30681A605A60FCF70BFC35604A
:1091580048E1316879B93068FCF704FC2846FFF724
:1091680088FE411C3846FCF735FC306048B129467A
:10917800FFF75CFE05E0FFF74FFE002800F03281A4
:10918800E9E72B789F4AA0493A2B08BF01350AAE78
:1091980033462846FCF706FC002840F323810A9B47
:1091A800EF18EB5C2D2B03D101374FF0FF3503E0AF
:1091B8002B2B08BF013701250DF1200A0DF11E0BDD
:1091C8004FF000080396CDF808A00196CDF800B03E
:1091D800334607AA8D49ADF81E803846ADF8208081
:1091E800FCF7E0FB404540F3FD80BDF81E20BDF8CC
:1091F8002030DFF824923C2101FB0233BDF81C200B
:109208004FF4616101FB02335D4325627C4D7D4B68
:109218002B600A9B7C491F444A4633463846FCF774
:10922800C1FB404508DC2B686B60724B226A1A60F0
:10923800724BC3F80080D5E00A9BC5F80490FD186E
:10924800FB5C2D2B03D101354FF0FF3703E02B2BAF
:1092580008BF013501270023ADF81C30ADF81E30DA
:10926800ADF820300A930396CDF808A00196CDF802
:1092780000B0334607AA65492846FCF793FB002847
:1092880004DC236AA3F56163E3630EE0BDF81E20E6
:10929800BDF820303C2101FB0233BDF81C204FF4FF
:1092A800616101FB02335F43E7630A9B27461D4464
:1092B8004FF000092B782C2B08BF013595F800805A
:1092C800B8F14D0F26D10DF12603029309AB009397
:1092D8000396019633460DF122024D492846FCF7C4
:1092E80061FB03287ED1BDF822104B1E0B2B79D8C9
:1092F800BDF82420531E042B74D8BDF82630062B45
:1093080070D887F80880F9603A617B610A9B05EBA1
:1093180003082AE0B8F14A0F06BF01354346442343
:109328000A220BA928460593FFF73EFEDDF82C809C
:10933800ADF826004545059B14D14D23B9F1000F22
:1093480007D123720323E36002232361C4F8149036
:109358000BE084F824300B23A3620123E36200238B
:10936800236302E080B23B7278610223ADF81C30BF
:109378000023ADF81E30ADF820300A9398F800307D
:109388002F2B0BD10396CDF808A00196CDF800B08D
:10939800334607AA1F494046FCF704FBBDF81E20C8
:1093A800BDF820303C2101FB0233BDF81C204FF4EE
:1093B800616101FB0233BB610A9D09F10109B9F141
:1093C800020F454407F11C077FF474AF6068FFF78C
:1093D800F5FD084B226A1A60E36B9B1A074A18BF0F
:1093E800012313600DB0BDE8F08F00BF2C9D0D0068
:1093F800E0E70320E8E703202F9D0D00E4E70320C2
:10940800CCDC0320D3E70320339D0D00569D0D00CF
:10941800429D0D00559D0D00C8E703202DE9F84F2A
:1094280007468B46904600F0D9F8194B1D689A46B6
:109438003DB15C46234613F8012B42B13D2A1C4638
:10944800F8D1384600F0CBF80020BDE8F88FCBEB18
:109458000404A94659F8040B0028F2D022465946BC
:10946800FFF70FFD88B959F8043C1E191B5D3D2B09
:109478000BD1DAF80030ED1AAD103846C8F80050B4
:1094880000F0ADF8701CBDE8F88F4D46E1E700BF6D
:1094980014DD032007B501AAFFF7C0FF03B05DF88C
:1094A80004FB000000487047D4DC03200268474BE7
:1094B800F0B592FBF3F403FB1422002ABCBF02F5BB
:1094C800A83202F5C0724FF4616004F52F2492FBB4
:1094D800F0F300FB13224FF03C00ACBF04F66C2401
:1094E80004F66B248B6092FBF0F300FB13224B60B5
:1094F8000A600723E21C92FBF3F3C3EBC303D31AFE
:109508008B61334B334D94FBF5F503FB054448F66B
:10951800AC62B4FBF2F2224440F2B457B4FBF7F366
:10952800D21A2D48B4FBF0F048F69466131AB3FB30
:10953800F6F6344440F26D12B3FBF2F0B3FBF7F3E6
:10954800E31A02FB1033992403EB83020232B2FBC5
:10955800F4F20A2A04FB02F404F102064FF00504AF
:10956800B6FBF4F434BF02266FF0090616444FF434
:10957800C87202FB05055F1C012E98BF0135B3F5C3
:10958800997FA7EB040702D3A3F5997214E0820729
:1095980005D16424B0FBF4F204FB12024AB94FF47B
:1095A800C872B0FBF2F402FB1400B0FA80F2520960
:1095B80000E001223B331A44A5F26C750023CA610E
:1095C8004D610E61CF600B620846F0BD805101000D
:1095D8004FC5FDFFB13A0200B03A0200704770472C
:1095E8001D400D0059400D0085400D0089400D00BB
:1095F800000000000000000000000000A1410D0074
:10960800B5410D002028432900202846290074650B
:109618006D7052656369657665640025303269004E
:109628006E66635061697200626C796E6B50757317
:109638006800646973706C61794D616E6167656D0E
:10964800656E740065787465726E616C54656D70D2
:1096580000696E7465726E616C54656D7000686F38
:109668006F6B2D726573706F6E73652F74656D7097
:109678005265616400633A2F55736572732F4E65A6
:1096880072646F6D2F4465736B746F702F64796F9C
:109698006C2F7372632F64796F6C2E696E6F006123
:1096A8007070004170706C69636174696F6E2073CB
:1096B8007461727465642E00546F6464004D435085
:1096C80039383038206E6F7420666F756E64004DBF
:1096D800435039383038204F4B0025662C2566001A
:1096E800627574746F6E5F6F6E0074302E74787468
:1096F8003D22546573742122FFFFFF002530336932
:10970800004E545020636C6F636B2069733A2000DD
:1097180053797374656D20636C6F636B2069733A5A
:10972800200053797374656D3A2000766F69642060
:10973800736574757028290000000000000000009F
:109748000D4B0D00294B0D00256C75002530347824
:10975800005C752530345800747275650066616C5C
:10976800736500252E2A6600252E2A6C6600256C56
:109778006600000000000000000000003D4B0D00E6
:10978800614B0D000000000000000000B1520D0008
:10979800D1520D002C0025737B226D223A222530F0
:1097A80032783A253032783A253032783A253032D4
:1097B800783A253032783A25303278222C227322B2
:1097C8003A25642C2263223A25647D006465766913
:1097D80063654C6F6361746F720041542654007B5B
:1097E8002277223A7B2261223A007075626C697393
:1097F800684C6F636174696F6E007363616E446176
:1098080074613D257300686F6F6B2D726573706F9F
:109818006E73652F25732F2573000000000000006C
:10982800000000005B5A0D00515A0D00475A0D0008
:109838003D5A0D00315A0D00255A0D00195A0D00D8
:10984800115A0D00075A0D00FD590D00757C0D00C9
:109858000000000000000000795A0D007B5A0D003E
:109868000000000000000000995D0D009F5D0D00E4
:1098780033610D00AD5D0D009B5D0D006E616E00E6
:109888006F766600696E66006C6E00666E00636FC8
:1098980064650064657461696C000D0A00253031E7
:1098A800307520005D20002C200028293A20002057
:1098B8005B00636F6465203D200025690064657462
:1098C80061696C73203D20006261756400536572A4
:1098D80069616C0053657269616C310074797065F7
:1098E80000706172616D00636D6400696400686E88
:1098F80064007374726D0066696C74006C766C0039
:1099080061646448616E646C65720072656D6F763F
:109918006548616E646C657200656E756D48616E50
:10992800646C657273004A534F4E53747265616D6F
:109938004C6F6748616E646C6572006E6F6E65008F
:10994800747261636500696E666F007761726E009C
:109958006572726F720070616E696300616C6C0091
:10996800252B3033643A253032750025592D256D65
:109978002D25645425483A254D3A2553257A00610A
:10998800736374696D65000000000000000000004A
:10999800D56B0D00DB6B0D00F36B0D00E96B0D0053
:1099A800D76B0D000000000000000000F9700D00EA
:1099B800E9700D00EB700D000000000000000000D1
:1099C800FD710D004D720D005B720D0029660D00D2
:1099D80039720D00FF710D0015720D0047720D00F0
:1099E8002B720D00F9710D0000000000000000004E
:1099F80009730D0059730D0067730D0029660D007A
:109A08001D730D003F730D002B730D0053730D0074
:109A18000B730D000F730D00000000000000000024
:109A280041740D008B740D0063740D0043740D00B8
:109A38006B740D0073740D007B740D0083740D003E
:109A4800000000000000000067750D005D750D0046
:109A580053750D0049750D003D750D0031750D00EC
:109A680025750D001D750D0013750D0009750D0088
:109A7800757C0D00000000000000000089760D00D4
:109A88008F760D00777B0D009D760D008B760D008F
:109A98000000000000000000856A0D00A56A0D00A6
:109AA80001760D001B760D001D7A0D005F780D0004
:109AB80031780D0045760D00F5780D00A1760D0082
:109AC80093780D00EF790D0047760D007F760D0035
