:02000002D0002C
:1040000000400D0088A60D00000006000C00050110
:08401000040115050000000089
:10401800D49A0D0009480A49884208B505D0094ACA
:10402800824202D0121A05F016F90748074A002101
:10403800121A05F036F9014808BD00BFB4DB0320A9
:1040480090A50D0084DC032084DC0320F0E7032026
:1040580070B503F0C7FB074C074BE41AA40800250A
:104068001E46A54204D056F8253098470135F8E792
:1040780070BD00BF90A50D00F0A40D0000F0C0BBFE
:1040880008B500F0ADFBBDE8084003F079BB01F0CE
:1040980027BF01F02DBF01F02BBF0078B0FA80F0E8
:1040A8004009704701230370704770470368184739
:1040B800012A02D0022A02D004E0016002E00B6863
:1040C80000B103600020704708B5174C2646102041
:1040D80004F0BBF9154D90B92B7883B123680F20F4
:1040E8000133236004F0B1F918B9102004F0ADF9D8
:1040F800A8B103F0EFFE0A22316803F025FA102078
:1041080004F0A3F9003018BF012028700F2004F034
:104118009CF9074B003018BF01201870D7E72368B7
:10412800023B2360E5E700BFD0DC0320B8DB0320B7
:10413800C4DB032010B590B003F0CCFE0E490F4C41
:1041480003F0A5F903F0C6FE0D4903F0A0F92268B3
:104158000C49684601F0DCFE03F0BCFE694603F03A
:1041680096F903F03FFF6A46002103F0F7F942F29F
:10417800107003F0BFFAE5E7F89A0D002CE303206E
:104188000C9B0D002B9B0D0010B501230374836855
:1041980004460BB1C06806E0006828B183680BB913
:1041A80004F0DFF9C3689847012363740020BDE871
:1041B800104001F0E1BC000030B593B003F08AFE76
:1041C8002349244C03F063F903F084FE224903F0E9
:1041D8005EF9112004F04CF904F060FC1AA3D3E94D
:1041E800002304F0C1FC04F0D1FEDFED1C7A07EED9
:1041F800100A77EE677AF2EE046A87EEA67A84ED03
:10420800007A03F067FE0546206804F059FC144A5A
:10421800CDE900010121284603F0A0F9D4ED007A88
:104228001049FDEEE77A02A817EE902A01F070FE19
:1042380003F0D8FE02A903F02AF942F2107003F045
:1042480059FAC1E7AFF300809A9CC9999CC9E93F24
:104258003A9B0D0020DD03204E9B0D0000004842D4
:10426800699B0D00799B0D0038B503F033FE1649A4
:1042780003F00DF9072004F0E8F80024054605B915
:10428800FEE703F027FE0134104903F000F903F0BC
:1042980021FE21460A2203F055F903F0A3FE234626
:1042A8000B4A002103F05AF903F014FE2346084A8A
:1042B800012103F053F903F00DFE064903F0E7F876
:1042C800642003F017FADAE7889B0D00999B0D002C
:1042D800AB9B0D00BA9B0D0010B5034B0360044661
:1042E80000F068FF204610BDF09A0D0010B5044696
:1042F800FFF7F2FF204640F24C5104F021F9204626
:1043080010BD000030B591B003F0E4FD0D490E4D2D
:104318000E4C03F0BCF82B6822680D49684601F082
:10432800F7FD03F0D7FD694603F0B1F803F05AFE34
:104338006A46002103F012F942F2107003F0DAF92C
:10434800E9E700BFCC9B0D0024DD0320C0DC03207F
:10435800DE9B0D0010B58368044613B103220146A5
:104368009847204610BD38B5044670B1056835B188
:104378002846FFF7EFFF1021284604F0E1F8204611
:104388001421BDE8384004F0DBB838BD10B5036827
:104398000446BBB1586801F0AFFB78B923685A7C72
:1043A80012B9586801F0B8FB2368586801F0BCFBE3
:1043B80020680023236028B1FFF7D5FF206808B1E3
:1043C800FFF7D1FF204610BD00231A461946406862
:1043D80001F016BD2DE9F047814694B014469A467F
:1043E8000D4621B1084604F0BAFF074600E00F4623
:1043F80024B1204604F0B3FF064600E026464FF0FD
:104408004C084246002101A804F04BFF1C9B8DF884
:104418001930002301AA1946D9F80400CDF8048000
:1044280002950397049405968DF818A001F008FDED
:10443800B0FA80F0400914B0BDE8F087F0B5364C0A
:10444800C9B00023DAB2914203F10103324E02D916
:10445800855CA554F6E7314B314D002474541C702B
:1044680003F038FD33462F4A214603F077F82246F9
:104478000221686801F0B4FC3246009403232A49FB
:104488002846FFF7A7FF02AE382730193822002147
:1044980004F007FFA7513834B4F58C7FF5D13146C5
:1044A80005221F4803F0DCFE03AC07460026B7428E
:1044B80024DD03F00FFD1D4902F0D6FF03F00AFDCD
:1044C800214602F0E4FF03F005FD194902F0CCFF94
:1044D80003F000FD0A2294F8281003F035F803F0E1
:1044E800F9FC144902F0C0FF03F0F4FC94F8291019
:1044F8000A2203F029F801363834D8E703F0EAFC39
:104508000D4902F0C4FF00231A461946686801F0F5
:1045180057FC49B0F0BD00BF7ADD03209CDC0320C6
:10452800D8E60320F09B0D00D8DC0320059C0D0085
:104538000C9C0D00179C0D00209C0D002DE9F041EE
:10454800164E054630460C46FFF73EFF00231A4636
:104558001946706801F07CFC114A13781046BBB903
:10456800104F104ED9B28C4203F1010203D96B5C93
:104578007B541346F5E7002501233555037003F0F6
:10458800A9FC33462946084ABDE8F04102F0E6BFD7
:1045980021462846BDE8F041FFF750BFD8E6032082
:1045A8009CDC0320D8DC0320299C0D002DE9FF4169
:1045B80006460F4614202A491546984603F0C2FFBE
:1045C800044630B100230374036043608360C36012
:1045D80043743460002C39D02149102003F0B2FF15
:1045E8000346B0B10022826095E8030002AA82E87F
:1045F800030093E8030085E8030092E8030083E8DA
:1046080003009968AA68A9609A60EA68D968E960AD
:10461800DA602568236035B12846FFF79BFE102134
:10462800284603F08DFF306803687BB10A9B424639
:104638008DE8090039460B4B043001F055FA28B9CA
:1046480033681B7C43B901F05FFAF9E7306800234F
:10465800336008B1FFF787FE304604B0BDE8F0814B
:10466800ECA20D0091410D0038B5054608460C46F0
:1046780004F075FE214602462846BDE8384000F0A1
:10468800CABD000030B5054691B008460C4602F098
:10469800E7FF042802DC204602F0E2FF0A2200219C
:1046A800684601F0C8FD204602F0DAFF0C280FDD4D
:1046B800204602F0D5FF0A22A0F111010CA801F052
:1046C800BAFD0CA9684601F09DFD0CA801F009FD92
:1046D800204602F0C5FF0028204605DC02F0C0FF96
:1046E8000A2200F10C0103E002F0BAFF0A22411F7E
:1046F8000CA801F0A0FD0CA9684601F083FD0CA8E8
:1047080001F0EFFC204602F0B3FF1549024604A869
:1047180001F0F8FD204602F0B3FF1149024608A84F
:1047280001F0F0FD69460CA801F061FD0D490CA8E7
:1047380001F0C4FD04A901F0B5FD0146284601F0C9
:1047480056FD0CA801F0CDFC08A801F0CAFC04A88D
:1047580001F0C7FC684601F0C4FC284611B030BD22
:104768003F9C0D00449C0D0008B503F03BFC174925
:10477800174C184D02F078FE03F0ACFB0A222168B2
:1047880002F0E2FE03F0A6FB0A22296802F0DCFE32
:104798002A682368934213D00F49104801F0B8FBE8
:1047A80003F020FC0D4902F05FFE03F093FB0B4978
:1047B80002F06DFE2B6823604FF4FA7002F09AFF46
:1047C8004FF4FA7002F096FFD6E700BF469C0D0042
:1047D800C0DB0320D0DC0320509C0D003ADD032011
:1047E8004FF0FF3002F086BF10B500220B680A6058
:1047F80004460068236008B1FFF7B5FD204610BDE8
:10480800F0B593B003F066FB4FF41651002403F0A3
:1048180055FB03F0E7FB4FF4E13103F0DDFB2346E2
:1048280022468C49019400948B488C4F8C4E01F0A1
:104838003FFB234622468B49019400948A4801F0A5
:1048480037FB4FF44065894B099309AA022388492D
:10485800009504A80C970B96FFF7A8FE04A98548B5
:10486800FFF7C2FF04A8FFF791FD09A8FFF772FD43
:10487800814B099309AA02238049009504A80C9743
:104888000B96FFF793FE04A97D48FFF7ADFF04A838
:10489800FFF77CFD09A8FFF75DFD7A4B099309AA8C
:1048A80002237949009504A80C970B96FFF77EFE22
:1048B80004A97648FFF798FF04A8FFF767FD09A841
:1048C800FFF748FD724B099309AA02237149009525
:1048D80004A80C970B96FFF769FE04A96E48FFF72A
:1048E80083FF04A8FFF752FD09A8FFF733FD6B4BC0
:1048F800099309AA02236A49009504A80C970B9604
:10490800FFF754FE04A96748FFF76EFF04A8FFF7F6
:104918003DFD09A8FFF71EFD634B099309AA022371
:104928006249009504A80C970B96FFF73FFE04A96F
:104938005F48FFF759FF04A8FFF728FD09A8FFF70C
:1049480009FD5C4B099309AA02235B49009504A859
:104958000C970B96FFF72AFE04A95848FFF744FF67
:1049680004A8FFF713FD09A8FFF7F4FC544B0993BB
:1049780009AA02235349009504A80C970B96FFF740
:1049880015FE04A95048FFF72FFF04A8FFF7FEFC07
:1049980009A8FFF7DFFC4D494D4801F03BFC012316
:1049A80022464C49019400944B4801F081FA4B4847
:1049B800FFF70AFD2146112003F036FD02211020E1
:1049C80003F032FD02210F2003F02EFD02F000F962
:1049D800434902F009FD02F0FBF8424902F004FDE8
:1049E80009A801F028FE404B04A8196801F039FD18
:1049F8009DF8203013F0FD0305D0102300940DEB33
:104A08000302072107E012AABDF8101022F83A1D88
:104A180000930321022309A801F0C6FD2F4C334956
:104A280009A801F022FE002502F0D2F8002209A907
:104A380001F0F2FE03232E4A2E4900952046FFF787
:104A4800C9FC2B462A462946606801F0B9F9FFF7E8
:104A58008BFE00BFFD4D0D005B9C0D00B5400D00A9
:104A6800B9400D00554E0D00729C0D00F54C0D001F
:104A7800869C0D00D4DC032071420D00939C0D0030
:104A880088DC0320C1410D00A19C0D00BCDD032082
:104A98000D430D00AC9C0D008CDC03203D410D0046
:104AA800B79C0D00C8DD0320D1400D00C49C0D004B
:104AB80040E303202D4B0D00D29C0D003CE3032066
:104AC800B3400D00DB9C0D0018E30320E09C0D00B3
:104AD8002CE30320B94C0D00E69C0D00D8E603201A
:104AE800C0DD032094DC0320BCDB0320F99C0D000F
:104AF800FE9C0D00089D0D0038B5046805467CB184
:104B08006368013B63605BB9236820469B689847EC
:104B1800A368013BA3601BB923682046DB6898475C
:104B2800284638BDF0B5564C564F9FB000F088FF68
:104B380023688342FAD202A9386800F002FB02997E
:104B480006A8FFF79FFD06A90AA801F050FB4E49E9
:104B58000AA801F0B3FB039A4C4905460EA801F0D8
:104B6800D1FB0EA9284601F09DFB494D02682B7820
:104B780048498DF8003004A83C2302F071FF05A8CD
:104B8800FFF7BAFF0EA801F0ACFA0AA801F0A9FADB
:104B980006A801F0A6FA02F09CFD01460EA8FFF750
:104BA80071FD2B780E9A3C498DF800300AA83C23F9
:104BB80002F056FF0BA8FFF79FFF0EA801F091FA2D
:104BC80003F088F90299054606A8FFF75BFD06A9D8
:104BD8000AA801F00CFB2C490AA801F06FFB039A04
:104BE8002A4906460EA801F08DFB0EA9304601F0B1
:104BF80059FB0168284602F04AFC0EA801F071FA38
:104C08000AA801F06EFA06A801F06BFA03F062F93F
:104C1800224905460EA801F0ABFA02F05AFD0146FA
:104C28000AA8FFF72FFD0AA90EA801F03BFB0168AF
:104C3800284602F02CFC0AA801F053FA0EA801F04D
:104C480050FA02F046FD01460AA8FFF71BFD0A9A32
:104C580013490EA801F05CF90AA801F042FA03F022
:104C6800C1F90EA902F013FC03F034F90EA902F001
:104C78000EFC00F0E5FE00F6B830206056E700BFF5
:104C880018DD03201CDD032095A00D000D9D0D00EF
:104C980039DD0320129D0D00219D0D00339D0D006F
:104CA8003C9D0D0013460A46012102F057BC000046
:104CB80038B50D460A4C03F00DF90A4902F0E7FB36
:104CC80003F008F9294602F0E2FB2946204601F0E4
:104CD800A1FA03F0FFF822680349FFF7E3FF38BDA4
:104CE800A0DC03204B9D0D005D9D0D0030B5294DC6
:104CF80095B003F0EFF82849284C02F0C8FB2B7850
:104D080027498DF8003000223C2304A802F0A8FEB1
:104D180005A8FFF7F1FE4FF47A6002F0EBFC03F010
:104D2800D9F8204902F0B3FB1F4B20491A682378B1
:104D38008DF8003004A83C2302F092FE05A8FFF786
:104D4800DBFE4FF47A6002F0D5FC03F0C3F8184B91
:104D580018491A68FFF7A6FF174B184A1B6812680C
:104D6800174904A801F0D4F8237816498DF80030C3
:104D780004AA3C2302A802F073FE03A8FFF7BCFEB6
:104D880003F0A8F8104902F082FB42F2107002F01A
:104D9800B1FCAEE739DD03206A9D0D0090DC0320ED
:104DA800E69C0D008B9D0D00A0DC0320A99D0D0045
:104DB8002CE30320AF9D0D00B0DC03201CE303208F
:104DC800D69D0D00699C0D00DC9D0D0073B50E4647
:104DD8000446154600F050FA01AB0146324620461B
:104DE80000F052FB20B12A460199204600F02EFB24
:104DF80002B070BD10B50C4603F06CF822460E499F
:104E0800FFF750FF21460D48FFF72EFC0B4800F036
:104E180034FD58B10A4C0B4908482246FFF7D6FF23
:104E280003F058F822680849FFF73CFF0348BDE83B
:104E3800104000F00EBA00BFFB9D0D00CCDD032032
:104E48002CE30320179E0D00249E0D00F0B585B0BD
:104E58000C4603F03FF81D4902F019FB03F03AF83D
:104E6800214602F014FB21461948FFF7FDFB1848BC
:104E780000F003FD20B3174C174D1849184E14487D
:104E8800184F2246FFF7A2FF2A4617491048FFF796
:104E98009DFF324615490E48FFF798FF3A461449D8
:104EA8000B48FFF793FF03F015F83B68029333684C
:104EB80001932B68009323680E4A012102F04EFBF0
:104EC800034805B0BDE8F04000F0C3B9349E0D00BA
:104ED800CCDD03201CE30320B0DC0320489E0D003A
:104EE800C0DC032024DD0320519E0D005B9E0D00D5
:104EF800609E0D006C9E0D002DE9F0436D4B6E4ECB
:104F08006E4FDFF81482DFF8149200251D706C4B89
:104F18008FB001241C7000F043FD2946204600F0A4
:104F28001BFF684C684822463146056003F0FAFAD0
:104F3800664822463146056003F0F4FA6448224682
:104F48003146056003F0EEFA6248224631460560B4
:104F580003F0E8FA604822463146056003F0E2FAB9
:104F68005E4822463146056003F0DCFA5C4822467A
:104F78003146056003F0D6FA5A48224631460560A4
:104F880003F0D0FA18215848584E00F0D5F83946A1
:104F9800404601F0EDF84046DFF88481224631466C
:104FA80003F0C0FA3946404601F0E2F84046DFF81F
:104FB80074812246314603F0B5FA3946404601F07D
:104FC800D7F84046DFF860812246314603F0AAFA56
:104FD8003946404601F0CCF84046DFF85081224679
:104FE800314603F09FFA3946404601F0C1F8404681
:104FF800DFF83C812246314603F094FA39464046B0
:1050080001F0B6F8224631464046394E03F08AFA96
:105018003223009306F12C0106F50B734FF400724E
:10502800304600F019F92246324B33493360304696
:1050380003F078FA314E324BD9F8008019683560A0
:1050480009AF756004A801F00CFA41463846DFF84C
:10505800E48001F006FA04AB30460295019500970A
:105068001022284902F09EF822464146304603F0B5
:1050780059FA254E254BD9F80090196835607560A6
:1050880004A801F0EEF94946384601F0EAF9204B48
:105098000193304604AB0296009704221D4902F0A2
:1050A80081F822464146304603F03CFA0FB0BDE88D
:1050B800F08300BF39DD032095430D00A6A00D0045
:1050C80090DC032084DC0320BCDD0320D4DC032037
:1050D8003CE30320C8DD032088DC03208CDC0320AC
:1050E80040E3032018E3032034DD0320EB600D00C8
:1050F800CCDD0320F09A0D00E1420D00C0DD032055
:10510800C8DB0320919E0D0094DC0320B4DB032050
:1051180045450D00949E0D001CE30320BCDB0320D5
:10512800B0DC0320C0DC032024DD0320A0DC032046
:105138002CE303209F680D0018230370704700F0CC
:105148002FBC70B590F8526004460D4626B902F09F
:10515800C0FA85E8410070BD00F072FCA26F636F71
:105168009B1A1844A26DA36E4FF47A719B1A90FB98
:10517800F1F2134401FB12002B60686070BD00F06F
:105188000FBC000010B5054B0360037C04461BB937
:10519800406808B100F0ACFE204610BD109F0D001D
:1051A80010B50446FFF7EEFF2046142103F0C8F9B6
:1051B800204610BD10B5074B0360037C04461BB99D
:1051C800406908B100F094FE2046FFF7DBFF204657
:1051D80010BD00BF4C9F0D0010B50446FFF7EAFF55
:1051E80020462C2103F0ACF9204610BD38B5037CCD
:1051F80004460D460BB1002038BD406810B100F0E0
:105208007FFE02E0084600F06BFE0028F3D06060E5
:10521800A560012038BD70B543680E4604461546A2
:10522800C1687BB15318826893420BD8E368606801
:105238002A463146184404F00EF8E3681D44E56038
:10524800012070BD29442046FFF7D0FF0028EDD18A
:1052580070BD0023C360704710B582600022C26031
:10526800012202744361034A029B41600260C361E8
:1052780010BD00BF4C9F0D0043698269934205D25F
:105288001A78012A0CBF1846002070470020704782
:1052980070B513689D68136803F11004146086697B
:1052A800B4420AD29B698C68A34201DA9D42F2DAC1
:1052B800A342CCBF0020012070BD002070BD2DE9A5
:1052C800F34702AD9A4601F110030A9E45F8043DE2
:1052D80007460C4691464FF00008019BBA699A426E
:1052E8001ED99968A26891421ADAB0450BD1C9F85B
:1052F80000302A4621463846FFF7CAFF18B1019BFD
:10530800CAF800300DE02A4621463846FFF7C0FFAC
:105318002A462146384608F10108FFF7B9FFDCE7BD
:10532800002002B0BDE8F08738B5044600680D4695
:1053380010B100F0AAFF07E0616829B1A368E2682C
:10534800013B9A4238BF8D54E3680133E36038BDAE
:105358007F2870B50C4601D8C1B219E0B0F5006FCE
:105368004FEAA01500F03F0603D265F03F01C9B22D
:1053780009E0010B41F0E0012046FFF7D5FF05F0F9
:105388003F0141F080012046FFF7CEFF46F0800143
:105398002046BDE87040FFF7C7BF00002DE9FF4178
:1053A8004D6880460F4616460024B868854246DA9E
:1053B800D8F80430CCB3595D6E2903EB05020FD041
:1053C80005D862290AD066290BD10C2109E0742975
:1053D8000ED075290ED0722903D107E0082100E00C
:1053E8000A213046FFF7A0FF002426E00D21F8E748
:1053F8000921F6E72B1D9842F6DD002302A812F8D2
:10540800011F19540133042BF8D1002301AA0E49B6
:105418008DF80C3000F084FD0128E5D13146BDF847
:105428000400FFF795FF0535DEE7595D5C2903D0D9
:105438003046FFF779FF00E001240135B5E7012088
:1054480004B0BDE8F08100BF1C9F0D007FB50C467D
:1054580006460C491046154600F0DCFEA368616854
:10546800591A0131284600F05AFE00236A4621469F
:1054780030460095019302930393FFF78FFF04B022
:1054880070BD00BFA6A00D002DE9F04389B0064607
:105498000F4604A811499046994600F069FE002578
:1054A80000954B4603AA39463046FFF708FF0446E5
:1054B80068B104AA03993046FFF7C8FF044620B133
:1054C800414604A800F00CFF08B90135E8E704A834
:1054D80000F007FE204609B0BDE8F083A6A00D0045
:1054E8002DE9F04F44684FF0FF354FF0030ED0F828
:1054F80000C0944580F09E8111F80C80B8F1000F2F
:1055080000F09881B8F12C0F00F0168118D8B8F186
:105518000D0F00F08B8106D8A8F10908B8F1010F2A
:1055280040F284813DE1B8F1200F00F07F81B8F1AD
:10553800220F40F036810CF10109C0F8009092E08A
:10554800B8F15D0F3CD007D8B8F13A0F00F0F08001
:10555800B8F15B0F07D024E1B8F17B0F03D0B8F1A5
:105568007D0F2DD01DE10134002B00F05F814768CD
:10557800099EBE4240F27D8107F1010CC0F804C0CB
:105588004FEA071C03EB0C0A0026CAF80450CAF8B5
:105598000C60CAF8085087687E1C1FBF03EB071908
:1055A800D9F80C700137C9F80C70B8F17B0F14BF2B
:1055B8000227012703F80C700768CAF80470B7E0DF
:1055C800002B00F033814768B8F17D0F07F1805850
:1055D80008F1FF3814BF4FF0020A4FF0010A07F133
:1055E800FF3903EB0818B9F1000F19DBD8F804707C
:1055F800013710D0D8F808707E1C0CD198F800B08C
:10560800D34540F0298187600CF10107C8F808707C
:1056180003EB091C11E009F1FF39A8F11008E2E7D2
:10562800B9F1FF3F40F0028116E109F1FF39B9F104
:10563800FF3FACF1100C00F0F980DCF80470013782
:10564800F3D0DCF808700137EFD1C0F80890EDE02E
:1056580011F80870002F68D0222F09D05C2F26D0AF
:10566800076801370760D0F800804245F0D85CE051
:10567800002B00F0CE804768099EBE4240F2F780BA
:1056880007F1010C3F01C0F804C003EB070C00262A
:10569800CCF80850CCF80450CCF80C60D0F8008056
:1056A80003F807E0CCF80490CCF80880B1E008F1E2
:1056B8000107BA42D4D90760CF5D662FD0D008D889
:1056C8002F2FCDD001D8222F07E05C2FC8D0622F12
:1056D80003E0722FC4D002D86E2F75D1C0E7742FA3
:1056E800BED0752F70D108F1020707604FF0040A89
:1056F800D0F80080424503D80768013F0760AFE74C
:1057080011F80870002FF7D0A7F1300BBBF1090F83
:1057180004D927F02007413F052F55D808F1010784
:10572800BAF1010A0760E3D1E6E7C0F800C09AE0E1
:105738004768013F876079E0002B77D087687E1C37
:1057480074D03F01DF5D013F012F6FD9476807F132
:10575800FF3803EB071CB8F1000F67DB1CF8107C5F
:10576800013F012F0AD85CF80C7C013706D05CF8A1
:10577800087C013702D1C0F8088057E008F1FF38EB
:10578800ACF1100CE7E711F8087007B3202F1ED012
:1057980010D8092F0AD2203F5E2F15D808F101072B
:1057A8000760D0F800804245EDD810E00A2F0ED9E6
:1057B8000D2F07E03A2F0AD001D82C2F02E05D2FD9
:1057C80005D07D2FE7D102E0C0F800C044E013B94E
:1057D80008F1FF371CE04768099EBE4247D907F128
:1057E80001083F01C0F8048003EB07080026C8F849
:1057F8000850C8F80450C8F80C604FF00406D0F8F8
:105808000090DE55C8F804C0C8F808900768013F42
:10581800076087687E1C04F1010407D033B103EBED
:10582800071CDCF80C700137CCF80C7007680137DE
:1058380007605CE6A3B14268511E03EB021300291E
:105848000EDB53F80C2C013203D053F8082C01322C
:1058580009D00139103BF2E76FF00100BDE8F08F85
:105868002046BDE8F08F6FF00200BDE8F08FC0F869
:1058780000C04FF0FF30BDE8F08FF7B5436904462C
:1058880000F12006F3B10022026242624FF0FF32BB
:105898008262C2690092C26841683046FFF720FE02
:1058A800431C09D1257C0DB1002033E0606900F06C
:1058B8001FFB6561E56105E00028F5DB636903EB23
:1058C800001325E000254FF0FF3725626562A762C7
:1058D80000952B46E26861683046FFF701FE002814
:1058E800E2DBE06113D0000100F0FAFAE2696061DE
:1058F8000346009225626562A762E26861683046E5
:10590800FFF7EEFD636903EB0010A06101E0636936
:10591800A361012003B0F0BD00F042B8024B0122A0
:105928001A7000F03DB800BF44E3032000F038B817
:1059380000F036B800F034B800F032B800F030B8F3
:1059480000F02EB800F02CB800F02AB800F028B803
:1059580000F026B800F024B800F022B800F020B813
:1059680000F01EB800F01CB800F01AB800F018B823
:1059780000F016B800F014B800F012B800F010B833
:1059880008B5024B1B689B68019308BD68020300B9
:1059980008B5024B1B68DB68019308BD6802030069
:1059A80008B5024B1B681B68019308BD2C02030055
:1059B80008B5024B1B685B68019308BD2C02030005
:1059C80008B5024B1B689B68019308BD2C020300B5
:1059D80008B5024B1B68DB68019308BD2C02030065
:1059E80008B5024B1B685B69019308BD2C020300D4
:1059F80008B5024B1B681B6B019308BD2C02030002
:105A080008B5024B1B68DB69019308BD300203002F
:105A180008B5024B1B681B6A019308BD30020300DE
:105A280008B5024B1B685B68019308BD18020300A8
:105A380008B5024B1B68DB68019308BD1802030018
:105A480008B5024B1B685B69019308BD1802030087
:105A580008B5024B1B68DB69019308BD18020300F7
:105A680008B5024B1B689B6D019308BD1802030023
:105A780008B5024B1B689B68019308BD78020300B8
:105A880008B5024B1B685B69019308BD78020300E7
:105A980008B5024B1B681B6D019308BD7802030013
:105AA80008B5024B1B689B6D019308BD7802030083
:105AB80008B5024B1B681B6E019308BD78020300F2
:105AC80008B5034B1B68D3F8A830019308BD000044
:105AD8007802030008B5034B1B68D3F8AC30019378
:105AE80008BD00007802030008B5024B1B685B681C
:105AF800019308BD4802030008B5024B1B689B6868
:105B0800019308BD4802030008B5024B1B68DB6817
:105B1800019308BD4802030008B5024B1B681B69C6
:105B2800019308BD4802030008B5024B1B685B6976
:105B3800019308BD4802030008B5024B1B681B6BA4
:105B4800019308BD4802030008B5024B1B685B6C53
:105B5800019308BD4802030008B5024B1B68DB6CC3
:105B6800019308BD4802030008B5024B1B685B6D32
:105B7800019308BD4802030008B5024B1B68DB6EA1
:105B8800019308BD4802030008B5024B1B685B6916
:105B9800019308BD6402030008B5024B1B681B682B
:105BA800019308BD3C02030008B5024B1B68DB6883
:105BB800019308BD3C02030008B5024B1B681B6932
:105BC800019308BD3C02030008B5024B1B685B69E2
:105BD800019308BD3C02030008B5024B1B689B6992
:105BE800019308BD3C02030008B5024B1B68DB6942
:105BF800019308BD3C02030008B5024B1B681B6AF1
:105C0800019308BD3C02030008B5024B1B689B6A60
:105C1800019308BD3C02030008B5024B1B68DB6A10
:105C2800019308BD3C02030008B5024B1B681B6AC0
:105C3800019308BD2802030008B5024B1B685B6A84
:105C4800019308BD2802030008B5024B1B689B6A34
:105C5800019308BD2802030008B5024B1B68DB6AE4
:105C6800019308BD2802030008B5024B1B681B6B93
:105C7800019308BD2802030008B5024B1B685B6B43
:105C8800019308BD2802030008B5024B1B681B6C72
:105C9800019308BD2802030008B5024B1B681B6866
:105CA800019308BD4C02030008B5024B1B685B68F2
:105CB800019308BD4C02030008B5024B1B681B6921
:105CC800019308BD4C02030008B5024B1B685B69D1
:105CD800019308BD4C02030008B5024B1B689B6981
:105CE800019308BD4C02030008B5024B1B68DB6931
:105CF800019308BD4C02030008B5024B1B681B6AE0
:105D0800019308BD4C02030008B5024B1B681B6ECB
:105D1800019308BD7402030008B5024B1B685B6B56
:105D2800019308BD6002030008B5024B1B681B689D
:105D3800019308BD2002030008B5024B1B685B688D
:105D4800019308BD2002030008B5024B1B685B697C
:105D5800019308BD2002030008B5024B1B68DB6AEB
:105D6800019308BD2002030008B5024B1B68DB6CD9
:105D7800019308BD2002030008B5024B1B685B6D48
:105D8800019308BD2002030008B5024B1B689B6DF8
:105D9800019308BD2002030008B5034B1B68D3F824
:105DA8008830019308BD00002002030008B5034BAA
:105DB8001B68D3F89430019308BD0000200203004B
:105DC80008B5024B1B685B68019308BD40020300DD
:105DD80008B5024B1B689B68019308BD400203008D
:105DE80008B5024B1B68DB68019308BD400203003D
:105DF80008B5024B1B681B69019308BD40020300EC
:105E080008B5024B1B685B69019308BD400203009B
:105E180008B5024B1B689B69019308BD400203004B
:105E280008B5024B1B68DB69019308BD40020300FB
:105E380008B5024B1B681B6A019308BD40020300AA
:105E480008B5024B1B689B6A019308BD400203001A
:105E580008B5024B1B68DB6A019308BD40020300CA
:105E680008B5024B1B681B6B019308BD4002030079
:105E780008B5024B1B685B6B019308BD4002030029
:105E880008B5024B1B689B68019308BD44020300D8
:105E980008B5024B1B685B69019308BD4402030007
:105EA80008B5024B1B681B6A019308BD4402030036
:105EB80008B5024B1B685B6A019308BD44020300E6
:105EC80008B5024B1B681B6B019308BD4402030015
:105ED80008B5024B1B68DB6B019308BD4402030045
:105EE80008B5024B1B681B68019308BD1C02030020
:105EF80008B5024B1B685B68019308BD1C020300D0
:105F080008B5024B1B689B68019308BD1C0203007F
:105F180008B5024B1B68DB68019308BD1C0203002F
:105F280008B5024B1B685B69019308BD1C0203009E
:105F380008B5024B1B689B69019308BD1C0203004E
:105F480008B5024B1B685B6A019308BD1C0203007D
:105F580008B5024B1B68DB6A019308BD1C020300ED
:105F680008B5024B1B681B6B019308BD1C0203009C
:105F7800002211464068FFF75BBF002211464068C7
:105F8800FFF776BF00224068FFF76ABF002281F062
:105F980001014068FFF744BF00231A4619464068CC
:105FA800FFF736BF00231A4619464068FFF728BF97
:105FB800002211464068FFF71BBF002211464068C7
:105FC800FFF706BF002202214068FFF709BF002340
:105FD8001A464068FFF7F4BE024B03225A60024A91
:105FE8001A60704748E303205C9F0D00704710B5A6
:105FF8001021044602F0A4FA204610BD70B5084BE3
:106008000360044600250E4640F80C5FFFF794FD38
:1060180030462671FFF7F4FCA560204670BD00BF2E
:10602800909F0D000079FFF7F3BC0000044B00209F
:106038004FF6FF72187058809A80FFF77DBE00BF38
:1060480050E3032010B5044603F089F901382318FA
:106058002046984206D20278197800F8011B03F806
:106068000129F6E710BD70B50C46911E222920D8EB
:106078002546294610B9234430220EE0B0FBF2F63B
:1060880002FB1600C1B205F8011B092894BF303184
:10609800573105F8011C3046EBE7994202D201F866
:1060A800012BFAE7002320460B70FFF7CBFF2046B1
:1060B80070BD002070BD38B5031E0C4615460BDABE
:1060C800B3F1004F4FF02D0214BF58421846012378
:1060D8000A702A46194400E00123FFF7C4FF20464E
:1060E80038BD10B504460068FFF702FF204610BD12
:1060F80010B50446006808B1FFF7FAFE00232360D4
:10610800A360636010BD38B504460D4600680131D0
:10611800FFF7F6FE10B184E82100012038BD10B564
:106128000368044613B143688B4207D22046FFF741
:10613800EAFF20B1A3680BB922681370012010BDD3
:1061480070B50E46114604461546FFF7E8FF18B924
:106158002046FFF7CDFF09E02A463146A5602068B2
:1061680003F079F82268A3680021D154204670BD55
:1061780038B50023044603604360836003730D460B
:1061880039B1084603F0EBF8294602462046FFF7E6
:10619800D7FF204638BD38B5054600680C4660B1C3
:1061A8006A688B689A4206D3096803F0B5F8A36851
:1061B800AB6000230AE0FFF79BFE23682B6063684F
:1061C8006B60A368AB60002323606360A36038BD85
:1061D800884210B50B46044607D0096819B19A6879
:1061E800FFF7AEFF01E0FFF783FF204610BD10B5B3
:1061F800002304460360436083600373FFF7E8FFEE
:10620800204610BD884210B5044601D0FFF7C3FFF1
:10621800204610BD38B505460C4641B1084603F086
:106228009EF8214602462846FFF78AFF01E0FFF75D
:106238005FFF284638BD10B5044600238AB02360A6
:106248006360A3602373084601A9FFF734FF01A91F
:106258002046FFF7DFFF20460AB010BD70B50446A0
:106268000E4609B9002070BD6AB18368D518294661
:10627800FFF755FF0028F5D02068A3683146184479
:1062880003F04AF8A560012070BD07B500238DF81A
:106298000410012201A98DF80530FFF7DFFF03B0D4
:1062A8005DF804FB10B58A6809680446FFF7D6FF55
:1062B80010B92046FFF71CFF204610BD38B504462C
:1062C8000D4641B1084603F04AF8294602462046E1
:1062D800FFF7C4FF10B92046FFF70AFF204638BD74
:1062E80008B582680B4612B919B9012008BD11B961
:1062F8000368187802E0006803F004F8B0FA80F048
:10630800400908BD0EB4FFB509AC054654F8047B36
:10631800019423463A46052102A8FFF711FE0C49CD
:1063280006462846FFF724FF31462846FFF7F7FEC2
:10633800286830B123463A46711C0194FFF700FEE5
:10634800A860284604B0BDE8F04003B0704700BF1D
:10635800A6A00D00704700207047704700207047C6
:1063680070470020704710B51421044602F0E8F881
:10637800204610BD10B51421044602F0E1F820466D
:1063880010BD10B51421044602F0DAF8204610BDFD
:10639800FDF77FBEFDF77DBEFDF77BBE08B58279B0
:1063A8008B799A4206D1062202F046FFB0FA80F0B5
:1063B800400908BD002008BD10B51422044600217C
:1063C80002F06FFF204610BD10B500230370044B88
:1063D80004461868FFF7C0FB01232370204610BD50
:1063E80080E3032010B5037804461BB1024B1868FC
:1063F800FFF7BAFB204610BD80E3032070B50C46BA
:1064080005461646FFF7D8FF2CB910222146284624
:1064180002F047FF16E0012E09D12B4604F11002C5
:1064280054F8041B43F8041B9442F9D108E06A1E8F
:106438000F23E15C02F8011F013BDBB2FF2BF8D10F
:1064480001232B74284670BD38B5044615461A46F4
:10645800FFF7D4FF257301232D0A657323742046A3
:1064680038BD2DE9F04188460746FFF7A5FFB8F18A
:10647800000F02D0002610250FE0102241463846B2
:1064880002F00FFF4AE018F80630A3F13002D1B24B
:10649800092908D8531C14D10136404602F05FFF81
:1064A8008642F0D333E0A3F16102052A02D8A3F1B2
:1064B8005702EFE7A3F14102052AEDD8A3F137020D
:1064C800E8E71201013DD4B27C55404602F047FF8F
:1064D80001368642E0D218F80620A2F13003D9B27C
:1064E80009290ED9A2F16103052B02D8A2F157039D
:1064F80007E0A2F14103052B94BFA2F137034FF047
:10650800FF335AB201331CBF14437C55C4E77B19CF
:106518000022BB4202D003F8012DFAE701233B74A5
:106528003846BDE8F0811FB5037C13F0FD0F044623
:106538000AD010220021684602F0B3FE10226946F4
:10654800204602F079FE00E00088003018BF0120E4
:1065580004B010BD10B5047C14F0FD0F06D0102255
:1065680002F06AFEB0FA80F0400910BD038808887E
:106578001B1A5842584110BDF0B58BB10024E51CD8
:106588008D420FD8661C055D875D974205D12E4464
:10659800B14207D31C60681CF0BD01352C44EEE7FE
:1065A8001846F0BD0020F0BD2DE9F74304460E461D
:1065B8001D461746002A3AD00A4601AB016AFFF782
:1065C800DBFF9DF82830226A03BBF8B1961C2E44E5
:1065D800361A1F2E2BD8DDF8048008F10209C8EB03
:1065E8000202121A00EB080105EB090092B22144DD
:1065F800204402F03BFE6B1C04F808302A4639465A
:1066080004EB090002F027FE266210E0901C2B180C
:106618001F2B0CD86B1CA354224420623946567099
:1066280020442A4602F017FE226A2A442262206A7F
:1066380003B0BDE8F0831FB50446034600F11F020E
:10664800002003F8010B93424FF00001F9D104AA8E
:10665800062302F8013D01232162009120461946D4
:10666800FFF7A2FF204604B010BD37B5054608461F
:106678000C4602F074FE00230093224603460921CB
:106688002846FFF791FF03B030BD73B50A460E46A2
:1066980001AB016A0446FFF76FFF054678B1019820
:1066A800226A2918121A521B2144204402F0D3FDF1
:1066B800236A5D1B256231462046FFF7E6FF02B0DC
:1066C80070BD000038B50025044600F8025BFFF7EE
:1066D80073FE04F11600FFF76FFE094904F12C0060
:1066E800FFF746FD012384F83C304FF6FF73E5645D
:1066F8002565A4F85430A56584F85C50204638BD5B
:10670800A6A00D002DE9F84390E850000D46174665
:10671800984604EBC606A64233D023689A69D9691D
:1067280002EBC10191421BD013689BB1B3F8420040
:10673800A84211D0B3F84400A8420DD0B3F84600DF
:10674800A84209D0B3F84800A84205D0B3F84A00D7
:10675800A84201D00832E5E717B1B8F1000F01D11E
:106768000834D8E7D3F84C90B9F1000FF8D0B3F853
:106778004420AA42F4D11B6D089A41463846C847BE
:10678800EEE7BDE8F883F8B590E850000F4604EB53
:10679800C606B442254608D0394654F8080BFFF718
:1067A800D9FE0028F5D02846F8BD0020F8BD08B568
:1067B80000680968C28ACB8A9A4204D10131013043
:1067C800FFF7ECFD08BD002008BD084609B90A46D8
:1067D80001E0096A0022FFF75BB910B50C4611B950
:1067E8000A46084606E001212046FFF74EFF216AC7
:1067F80000222046BDE81040FFF752B913B501A8A2
:10680800FFF7E2FD0020FFF753F9044601A8FFF760
:10681800E9FD204602B010BD73B505460C4601A837
:106828001646FFF7D1FD21462846FFF7CEFF002880
:1068380008DB31462846FFF7D0FF002802DB284650
:10684800FFF7DCFF044601A8FFF7CCFD204602B0A5
:1068580070BD30B5836993E8140002EBC404A2420A
:10686800134607D01D68ED8A8D4202F10802F6D161
:10687800184630BDC2691368526803EBC2029A42D7
:10688800184606D00468E48A8C4203F10803F6D15E
:1068980030BD002030BD10B504460430FEF72CF999
:1068A800204610BD0B68036013B15A6801325A6064
:1068B800704710B551F8043B044640F8043BFFF715
:1068C800F1FF204610BD10B551F8043B044640F8CE
:1068D800043BFFF7E7FF204610BD70B50468436826
:1068E800054604EBC306A64204D0201DFEF704F9B2
:1068F8000834F8E72868FFF7FBFA284670BD38B572
:10690800044610200D78FDF7C2FB20B10023036078
:106918004360836005732060204638BD38B504683D
:10692800054634B12046FFF7D8FF1021204601F074
:1069380007FE284638BD10B5046904F11C00FFF7AE
:10694800EDFF2046BDE81040FDF7A3BB70B5046815
:106958004368054604EBC306A64204D0201DFEF793
:10696800CBF80834F8E700236B6070BD8842F8B5AF
:1069780006460C46154614D9904213D2A2F10805D2
:106988006C1AA1F108070444AF4218D01CB129467B
:106998002046FFF798FF281DFEF7AEF8083D083C93
:1069A800F2E70CD0AC420AD01EB121463046FFF7C0
:1069B8008AFF201DFEF7A0F808340836F2E7F8BD74
:1069C800F8B50B68DA690E4613685168054603EB9B
:1069D800C101002499420DD018688269C06902EB90
:1069E800C000904204D052F8087B87F85C40F8E772
:1069F8000833EFE733684FF6FF710022D9827F2111
:106A08001A701976C3F80A20C3F80E20C3F81220AA
:106A18002C686B6804EBC307BC4216D0314620468D
:106A2800FFF7C5FE08B90834F6E774B1201DFEF774
:106A380063F82B686A6804F1080103EBC202204678
:106A4800FFF794FF6B68013B6B60F8BDF7B5044630
:106A580046686846FFF737FF6768A3689F4214DBFC
:106A68000137002F0BDDF800FFF73AFA054600B3AF
:106A780094E8060001EBC202FFF778FF00E000256A
:106A88002068FFF735FA2560A7602368626803EB82
:106A9800C60503EBC202294605F10800FFF766FFA9
:106AA8001DB169462846FFF70EFF6368013363602E
:106AB800012501A8FEF720F8284603B0F0BD70B5FF
:106AC80004684368054604EBC306A64204D0201DAB
:106AD800FEF712F80834F8E72868FFF709FA28469D
:106AE80070BD10B5044638B1FFF7E9FF20460C2108
:106AF800BDE8104001F024BD10BD10B5044638B102
:106B0800FFF7DDFF20460C21BDE8104001F018BD5D
:106B180010BD000037B50025044605604560856056
:106B2800C560056145618561C5612846FEF7A0FF1E
:106B380020B1254A29460A20FFF7EEF801230DF176
:106B4800030101A88DF80330FFF7D9FE2569019BE1
:106B580023610022019235B12846FFF7BEFE1021BD
:106B6800284601F0EDFC01A8FFF7D8FE0120FDF74B
:106B78008EFA636960611BB10121184601F0E0FCDF
:106B88000C20FDF784FA034618B100220260426027
:106B98008260A069A36108B1FFF7A3FF0C20FDF78D
:106BA80076FA034618B10022026042608260E0690A
:106BB800E36108B1FFF7A1FF002221460348FEF771
:106BC8005FFF204603B030BD395A0D00F96F0D0044
:106BD80010B50A4C2368DB070ED42046FDF75DFA92
:106BE80050B10748FFF796FF2046FDF75BFA054AC4
:106BF8000549034801F096FC014810BD78E30320DD
:106C080058E3032084DC0320156C0D0010B50446FE
:106C1800C06908B1FFF771FFA06908B1FFF761FF0C
:106C2800606910B1012101F08BFC04F11000FFF73D
:106C380075FE204610BD8842F8B506460C46154636
:106C480014D9904213D2A2F108056C1AA1F10807D1
:106C58000444AF4218D01CB129462046FFF729FE4C
:106C6800281DFDF749FF083D083CF2E70CD0AC426F
:106C78000AD01EB121463046FFF71BFE201DFDF746
:106C88003BFF08340836F2E7F8BDF7B50446466816
:106C98006846FFF70EFE6768A3689F4214DB01375A
:106CA800002F0BDDF800FFF71BF9054600B394E849
:106CB800060001EBC202FFF7BEFF00E000252068D6
:106CC800FFF716F92560A7602368626803EBC6051D
:106CD80003EBC202294605F10800FFF7ACFF1DB11E
:106CE80069462846FFF7E5FD6368013363600125BF
:106CF80001A8FDF701FF284603B0F0BD2DE9F04FCC
:106D08000C688BB006460F4614B38569C36904F155
:106D1800020A05EBC30804F1160BA84516D0D5F8EE
:106D28000090504609F10201FFF714FC00286BD0CF
:106D380009F116015846FFF70DFC002864D094F8B5
:106D48003C2099F83C309A425ED101E023780BB997
:106D580030485BE094F83C30002B41D002342046A8
:106D6800FFF7E1FBB0B92C4B2C491A88013292B2DB
:106D78001A8001A80123FFF767FB05AD01AA134696
:106D880003CBAB42206061601A4604F10804F6D1D7
:106D98001868206024242246002101A802F081FA04
:106DA800ADF806403C6804AAA31C04F1120E18684A
:106DB8005968154603C5083373452A46F7D118683C
:106DC800286023788DF80830B38AADF82430E36A58
:106DD8000393002204F13E0101A8FEF77BFEA8B947
:106DE8003B689E653B68012283F85C20394601A810
:106DF800FFF75FFD01A906F11800FFF746FF02A89B
:106E0800FDF77AFE002001E0083586E70BB0BDE803
:106E1800F08F00BFF2FEFFFF7CE30320EC9F0D0024
:106E2800884270B515461AD9904219D2A1F10806C0
:106E3800511A0439151F44182B1F9E4225D0042CC3
:106E480007D055F8043C44F8043C29462046FFF78F
:106E580029FD2846FDF750FE083D083CECE714D014
:106E68000C1D061D231F9D420FD0042E07D054F879
:106E7800043C46F8043C21463046FFF713FD204603
:106E8800FDF73AFE08340836ECE770BDF0B50F6838
:106E980089B00D4639460446FFF775FC00285ED1D7
:106EA800237BBBB103AE3B4607F1100CB64618680E
:106EB8005968324603C2083363451646F7D1186845
:106EC8001060002307F1140271460120FEF7F8FD57
:106ED800002845D1294602A851F8043B0193FFF741
:106EE800E1FC019B039302A904A86768FFF7DAFC99
:106EF8006568A3689D4214DB0135002D0BDDE800B1
:106F0800FEF7EEFF064610B394E8060001EBC20256
:106F1800FFF786FF00E000262068FEF7E9FF2660FD
:106F2800A5602668626806EBC70506EBC20229461B
:106F380005F10800FFF774FF35B1039B46F83730B9
:106F480004A9281DFFF7AEFC63680133636004A839
:106F5800FDF7D2FD02A8FDF7CFFD002000E00148B3
:106F680009B0F0BDF2FEFFFF73B50025056045606E
:106F780006462020FDF78BF80446B0B1034601A968
:106F880003F8015BC0F801505D604FF6FF73C382E0
:106F98007F23C0F80A50C0F80E50C0F8125003768C
:106FA8001C308DF80450FFF7AAFC0023142001932D
:106FB800FDF76DF828B1012343608360064B036039
:106FC800046173683460706001A80193FDF794FD53
:106FD800304602B070BD00BFD89F0D0013B54FF00A
:106FE800000101AA0446FFF7BFFF204602B010BD0A
:106FF800F0B504468BB00D46002900F0A58003A823
:10700800FFF7E2F96368033B072B00F29A80DFE899
:1070180003F0044498989898808B06A8FFF7DEFF41
:10702800069BA2899A8262895A8222891A822289B7
:10703800DA81228BDA822246A17D52F8100F049061
:107048009288ADF814200498BDF81420D971C3F8BB
:107058000100A3F805202B6813B1A96806A8984772
:10706800A37B012B069B0BBF022201221A701A7008
:107078000CBFAC69EC696368002B0ADC06A908A898
:10708800FFF721FC08A92046FFF7E0FC09A8FDF757
:1070980033FD07A8FDF730FD53E0A1892846FFF727
:1070A800D8FB044600284CD06B680BB1E9689847B8
:1070B80023681A78012A04D12146E869FFF780FC81
:1070C8003FE0DA69A86913685168002603EBC1013B
:1070D80099420DD01D68AA69ED6902EBC505954274
:1070E80004D052F8087B87F85C60F8E70833EFE7CC
:1070F80023684FF6FF710022D9827F211A70197612
:10710800C3F80A20C3F80E20C3F81220FFF71EFCAC
:1071180017E0A18A2846FFF79CFB90B1E18A00900E
:10712800E368226928690AE0A18A2846FFF791FBEB
:1071380038B10568E18A0090E3682269E869FFF7D9
:10714800E1FA03A8FFF74EF90BB0F0BD10B50446FD
:10715800406808B1FCF79DFF204610BD07B50369DC
:107168000C308DE8090003F12C00FEF7BAFF6846E1
:10717800FFF7ECFF03B05DF804FB000038B500230F
:107188000446036014200D46FCF781FF28B1012353
:1071980043608360024B036005612060204638BD70
:1071A800A09F0D002DE9F04188B006461D466020DD
:1071B80000238846174604930593FCF768FFCDF82B
:1071C80018D00446079000B3FFF77CFA414604F153
:1071D8002C00FFF71FF80F9BE364109B23652770B3
:1071E8002B46A21C05F1140153F8040B42F8040BBA
:1071F8008B42F9D10E9B04F1160203F1140153F8E6
:10720800040B42F8040B8B42F9D12146002501AB4F
:1072180002AA03A80795FFF7B1FF039B059A0392FB
:1072280003A805930494FDF767FC06A8FFF78EFFF3
:10723800049B059A3168336008A8736806917260E8
:1072480040F8043D05950495FDF756FC05A8FDF7A3
:1072580053FC08B0BDE8F08110B50446406808B199
:10726800FCF717FF204610BD73B505690C30AC69F3
:10727800EB698DE8210004EBC306A64204D0201D6B
:10728800FDF73AFC0834F8E7A869FEF731FE6846CE
:10729800FFF7E2FF02B070BD38B500230446036073
:1072A80014200D46FCF7F3FE28B1012343608360E8
:1072B800024B036005612060204638BDBC9F0D006D
:1072C800F0B5002687B006604660074624200D46C4
:1072D800FCF7DDFECDF810D004460590A0B1FFF70D
:1072E8006BF8A682E682A661E66126622B462246F4
:1072F80005F1100618685968154603C50833B342E6
:107308002A46F7D11868286000232146059302AA67
:1073180001AB03A8FFF7C0FF039B7A683C607B6062
:1073280003A80392FDF7E8FB04A8FFF795FF38468A
:1073380007B0F0BDF0B50B6887B005460C46002BCA
:1073480046D0027B83F83C20037BC3B10868163023
:10735800FFF7E9F898B90122214901A8FFF74EF88B
:10736800236801AA163305AF164603CEBE4218603D
:107378005960324603F10803F6D130681860266870
:10738800163631462846FFF7FEF930B1006808B3D3
:107398002146FFF7B3FC04461EE0314601A8FFF77B
:1073A8008FFF01A92846FFF771FD58B96B682A6855
:1073B80003F10053013B214652F83300FFF79EFCCE
:1073C800044601E06FF0F90402A8FDF795FB03E01D
:1073D800044C01E06FF0F904204607B0F0BD00BF8F
:1073E800EC9F0D00F2FEFFFF37B504460D4601A8DD
:1073F800FEF7EAFF29462069FFF79CFF044601A82B
:10740800FEF7F0FF204603B030BD0000024800231D
:107418000360FEF799BB00BF80E30320F8B506467A
:107428000D468F180024BD420CD0336815F8011B97
:107438009B6830469847002801DB0444F3E7002C9A
:1074480008BF04462046F8BD70B505460C460846F8
:1074580049B101F084FF2B68024621462846DB68C3
:10746800BDE87040184770BD08B5FFF7EDFF08BDCF
:1074780003689B68184738B50D210546FFF7F8FFE4
:107488000A2104462846FFF7F3FF204438BD38B5E3
:107498000546FFF7D9FF04462846FFF7ECFF2044CE
:1074A80038BD30B58BB00B4600218DF82410012A69
:1074B80098BF0A220DF12304B3FBF2F505FB123342
:1074C80003F0FF03092B94BF30333733DBB2214677
:1074D80004F801392B46002DEED1FFF7B5FF0BB0AC
:1074E80030BD10B42AB903685DF8044B9B68C9B273
:1074F8001847D2B25DF8044BFFF7D3BFFFF7F1BFCF
:107508002DE9F04107460E4615462AB90368C9B267
:107518009B68BDE8F04118470A2A02D1002901DA20
:1075280004E0D2B2BDE8F041FFF7BBBF2D21FFF761
:107538009FFF2A46044671423846FFF7B2FF2044AF
:10754800BDE8F081FFF7DCBF38B50546FFF7D8FF87
:1075580004462846FFF78FFF204438BD0CB42DE9B8
:10756800F04387B000AF07F13804054654F8049B90
:107578003C600E4623464A461421381DFEF7E0FCBF
:10758800132805D8391D2846FFF75EFF044613E087
:1075980000F1080323F00703E846ADEB030D411C97
:1075A80023464A4668463C60FEF7CAFC69462846B8
:1075B800FFF74AFF0446C5461EB12846FFF75BFFA2
:1075C800044420461C37BD46BDE8F04302B070476E
:1075D800014B024A1A60704784E3032045A10D005D
:1075E800F0B5144B144F1E68144B064418683B68DA
:1075F80006449E428BB01BD00AA801AD40F8286D06
:1076080001F022FD436903F26C73436104460FCC19
:107618000FC50FCC0FC5D4F800E0C5F800E001ADE8
:107628000FCD074C0FC40FCD0FC43E60C4F800E067
:107638000BB0F0BDB8E30320B4E30320B0E30320AC
:1076480088E3032008B50020FEF73AFC28B1FEF7CE
:107658001FFC80F00100C0B208BD012008BD000079
:1076680008B5FFF7BDFF014B986808BD88E3032004
:1076780008B5FFF7B5FF014B586808BD88E303203C
:1076880008B5FFF7ADFF014B186808BD88E3032074
:1076980010B50020FEF7E4F9044668B9FEF744FB8C
:1076A80001280BD12046FEF76FFB38B9FFF7CAFF58
:1076B80030B9FEF7E5FBF9E7012010BD002010BD49
:1076C800FFF7C0FF0020FEF7CBF9003018BF0120FC
:1076D80010BD08B5FFF7DCFFBDE80840FEF7B8B9F4
:1076E800024B1A68024B1A60704700BFCCDB0320BC
:1076F800ACE303200021FEF727BB10B50446FCF7D6
:1077080029FE204610BD13B50B46044603C88DE874
:10771800030093E8030084E803009DE8030083E87E
:10772800030002B010BD00000348044A04490023C6
:10773800836000F0F7BE00BFBCE3032084DC0320B5
:1077480003770D0008B50C4B33B100F0C3FB036899
:107758001B699847002809DC084B63B100F042FC1C
:1077680003681B699847002803DC08BDAFF3008055
:10777800F2E7AFF3008008BD000000000000000041
:1077880008B5FFF7DFFFFEF75BF9014B186008BD8E
:1077980008E7032007B5002300931A466FF0770126
:1077A800FEF704FB03B05DF804FB000007B543884F
:1077B8000A2B08D0502B09D1094B1B683BB103B0E9
:1077C8005DF804EB1847FFF7E5FF06E00023009398
:1077D8001A466FF07701FEF7E9FA03B05DF804FB8B
:1077E800CCE3032010B5FEF71BF9044601F062FD57
:1077F800074B13B12046AFF3008000210448FEF781
:1078080067FB00210348BDE81040FEF7C5BA00BF7A
:1078180000000000B5770D0070470020704710B5D4
:107828001021044600F08CFE204610BD08B508B1B2
:10783800FFF7F5FF08BD38B5C468ECB12378022B13
:1078480002D1E068FEF754FB656835B12846FCF7BD
:1078580081FD1021284600F073FEA56835B1284641
:10786800FCF778FD1021284600F06AFE2046142116
:10787800BDE8384000F064BE38BD13B5044691E851
:10788800050000234B600B602060626001A8019333
:107898000093FDF731F9204602B010BDF7B50C464C
:1078A80002AD54F8043B45F8083D06460F4601A8CA
:1078B8002146FEF7F7FF29463046FFF7DEFF01A80D
:1078C800FDF71AF92046FDF717F93846082100F0A8
:1078D80037FE304603B0F0BD826810B50AB900F033
:1078E80040FEC368BDE81040184708B5006800F1BD
:1078F8001001FFF7F1FF08BD826810B50AB900F062
:1079080030FEC368BDE81040184708B5006800F1AC
:107918001001FFF7F1FF08BD38B5002383608B68BD
:1079280004460D462BB102229847EB68E360AB682A
:10793800A360204638BD00002DE9F0414FF69C7346
:1079480086B00468B1F904208B8000230F688DF895
:1079580000300B604FF00200D4E84F1F994203D16A
:10796800C4E8450F002DF7D102D08DF800106BE068
:1079780014F10C051EBFE76022821F460123BFF3E6
:107988005F8F0020637004F10803BFF35F8F53E833
:10799800006F43E80002002AF9D1BFF35F8F002E81
:1079A80052D0FEF7E1F920B129463046FFF794FF9F
:1079B80043E031466846FFF7AFFFE068B4F910507E
:1079C80008B101F0B1FC04901020ADF81450FCF798
:1079D8005EFB054630B34FF00008C0F80880182059
:1079E800FCF755FB0446C0B1C0F80880014668465C
:1079F800FFF789FE029BA268A360039B0292E268DC
:107A0800E360BDF81430A3824FF69C73ADF81430D0
:107A1800049B03922361CDF810800E4BEB600E4B54
:107A28002C60AB600498FEF763FA6846FCF792FC9A
:107A3800002229460948FEF79FF93046FCF78AFCE0
:107A48001021304600F07CFD3846FEF751FA06B0AA
:107A5800BDE8F081F3780D00517B0D0039800D00F1
:107A68002DE9F04F8BB007AD4FF0000B0646994655
:107A780014200C230F4690469DF850A0C5F804B07A
:107A8800C5F808B00793FCF702FB044638B180F844
:107A980000B080F801B0C0F804B0C0F808B0002306
:107AA800102003940493FCF7F2FA28B101234360F1
:107AB8008360234B0360C4600490224B0893082022
:107AC800FCF7E5FA044628B1039B40F8043B04A9F7
:107AD800FEF7E8FE00955FFA8AF34A4641463846C3
:107AE8000994FEF7DDF9B8B9039B5B7803F0FF0250
:107AF80093B94FF69C7305A903A80592ADF8183001
:107B0800FFF71AFF0598FEF7F3F905A80999FFF79B
:107B1800C5FE06A8FCF7F0FF039B059304A906A879
:107B2800FEF7C0FE05A93046FFF7A7FE06A8FCF73A
:107B3800E3FF04A8FCF7E0FF30460BB0BDE8F08F88
:107B4800A0A10D00BD7C0D00022AF8B5044606D0A0
:107B5800032A17D0012A21D10B6803601EE01820E0
:107B68000E68FCF794FA054650B13146FFF7D4FE8B
:107B78003069B6F9147008B101F0D6FB2861AF82FC
:107B880025600BE004684CB12069FEF7B1F9204686
:107B9800FCF7E0FB1821204600F0D2FC0020F8BDDD
:107BA80038B5002383608B6804460D462BB102224A
:107BB8009847EB68E360AB68A360204638BD022AAB
:107BC80070B5044606D0032A11D0012A18D10B68D3
:107BD800036015E014200E68FCF759FA054620B139
:107BE8003146FFF7DDFF337C2B74256008E004681D
:107BF80034B12046FCF7AEFB1421204600F0A0FC6F
:107C0800002070BDF0B5002387B00C46BFF35F8F2E
:107C180050E8006F40E80032002AF9D1BFF35F8FC7
:107C2800002E3FD01846FEF79FF8074620B12146A0
:107C38003046FFF761FE2EE0314601A8FFF7B0FF9E
:107C480023788DF814301020FCF721FA0546D0B1BE
:107C580087601420FCF71BFA044678B18760014658
:107C680001A8FFF750FD039BA268A360049B039241
:107C7800E268E3609DF81430049223740A4BEB60C9
:107C88000A4B2C60AB6001A8FCF764FB0022294674
:107C98000748FEF771F83046FCF75CFB10213046C8
:107CA80000F04EFC07B0F0BD13790D00C77B0D0046
:107CB80039800D0030B585B004460D46684611463A
:107CC800FFF7ECFD7CB124B228460DB101F02CFB86
:107CD800029002A96846ADF80C40FFF72DFE029805
:107CE800FEF706F91DE000988DF808404FF00102F4
:107CF800D0E84F3FA34203D1C0E8412F0029F7D174
:107D080002D08DF808300CE010F10C014FF001039F
:107D180018BF0373BFF35F8F043000F8033CFFF70D
:107D280071FF01A8FCF7E8FE05B030BD704710B53B
:107D38001821044600F004FC204610BDF0B5037D70
:107D4800062B8DB00E4600F104074FF0000402D058
:107D580000F1080518E00CAD394605F8304D2F2321
:107D68002A460A20FDF710FF284601F0F8FA336882
:107D78000246DB682946304698470FE024B12E2199
:107D88003046FFF775FB044415F8011D0A223046FA
:107D9800FFF7B4FBBD420444F0D120460DB0F0BD5E
:107DA80010B5054B0446112240F8043B002101F0B0
:107DB80078FA204610BD00BFBCA10D000346074A53
:107DC80010B543F8042B01F1100251F8044B43F8A5
:107DD800044B9142F9D10A781A7010BDBCA10D006C
:107DE80010B59DF8084044EA032343EA024242EAF8
:107DF800016104234160037510BD37B50D788B7898
:107E08004A78C97800912946FFF7EAFF03B030BDE8
:107E180041747047704708B50021007CFDF75CFF8E
:107E280030EA200028BF4FF0FF3008BD08B5012117
:107E3800007CFDF751FF30EA200028BF4FF0FF30EB
:107E480008BD08B5007CFDF73FFF20EAE07008BDDB
:107E580008B5007CFDF730FF20EAE07008BD007C23
:107E6800FDF74ABF10B51421044600F069FB20460F
:107E780010BD38B50446007C0D46FDF725FF0028E7
:107E880001DC607C28B12946207CFDF72DFF20EA23
:107E9800E07038BD10B50446002363604FF47A7370
:107EA800A360054B236001230846217463741146BF
:107EB800FDF7F2FE204610BDD0A10D000022007C87
:107EC800FDF7F2BE10B514220446002101F0E9F9CD
:107ED800204610BD30B50E4D87B001A8FFF7F2FF60
:107EE800296811F0010410D12846FCF7D6F860B1D2
:107EF80001AA21460748FFF7CDFF2846FCF7D2F82C
:107F0800054A0649034800F00DFB024807B030BD9A
:107F1800D0E30320D4E3032084DC03201D7E0D007E
:107F280070474174704708B5007CFDF76DFE20EA84
:107F3800E07008BD08B5007CFDF73EFE20EAE07061
:107F480008BD08B5007CFDF747FE30EA200028BFD1
:107F58004FF0FF3008BD08B5007CFDF735FE30EA6C
:107F6800200028BF4FF0FF3008BD007CFDF73CBE65
:107F780010B51421044600F0E3FA204610BD70B590
:107F8800457C04460E4625B9007CFDF73DFE0028D9
:107F980005DD3146207CBDE87040FDF705BE28466A
:107FA80070BD000010B50446084611460022626004
:107FB8004FF47A72A260054A22600122207462742A
:107FC8001A46FDF7E9FD204610BD00BF00A20D00CE
:107FD8000023007CFDF720BE0022FFF7F9BF007CDC
:107FE800FDF70ABE38B50C4D296811F0010411D10E
:107FF8002846FCF752F868B1084A094B0948214657
:10800800FFF7D0FF2846FCF74DF8074A074905480F
:1080180000F088FA034838BD80E4032084E4032094
:10802800FCE30320E8E3032084DC0320297F0D0020
:1080380010B5836804460BB900F093FAC3689847F3
:10804800A3681BB1032221462046984720461021E9
:10805800BDE8104000F074BA7047F8B506461546FA
:108068000C468F18BC4206D0336814F8011B9B6875
:1080780030469847F6E72846F8BD0022007CFDF711
:10808800D3BD0021007CFDF7D7BD0021007CFDF7A2
:10809800DBBD0021007CFDF7DFBD0021007CFDF782
:1080A800E3BD10B51421044600F04AFA204610BD7D
:1080B80010B504464FF47A730846A3600021044BB8
:1080C800207461602360FDF7DFFD204610BD00BF0E
:1080D80030A20D000021007CFDF7CEBD0022114624
:1080E8004068FDF7A5BE002211464068FDF7C0BEF6
:1080F80000224068FDF7B4BE002281F0010140680B
:10810800FDF78EBE00231A4619464068FDF780BE6B
:1081180000231A4619464068FDF772BE0022114630
:108128004068FDF765BE002211464068FDF750BE65
:10813800002202214068FDF753BE00231A4640681A
:10814800FDF73EBE10B103685B6818477047000032
:1081580038B50C4B03600446D0F8CC0108B1FBF7E6
:108168009AFFD4F8C45135B12846FCF70FF9042119
:10817800284600F0E5F9A06808B1FFF7E3FF2046BC
:1081880038BD00BF58A20D0038B50D4C0D4B23600B
:108198000025022304F5E4706360A560C4F8C451A7
:1081A800C4F8C851FDF7D0FC074BC4F8CC51236084
:1081B8002046064A0649BDE8384000F0B3B900BF7A
:1081C80008E50320C0A20D0058A20D0084DC03209E
:1081D80059810D0030B54B688A68934210DA0A68F5
:1081E8005C1C4C600546382404FB03240FCD0FC4E7
:1081F8000FCD0FC40FCD0FC495E8030084E803002A
:1082080030BD002211464068FDF7F2BD002211463C
:108218004068FDF70DBE002211464068FDF728BEF4
:1082280000224068FDF71CBE002281F00101406871
:10823800FDF7F6BD00231A4619464068FDF7E8BD6C
:10824800002211464068FDF7C3BD002202214068A4
:10825800FDF7C6BD00231A464068FDF7B1BD000012
:108268001FB5002301910648029301A90392FDF767
:108278004BFD039B9842A8BF184605B05DF804FB68
:10828800DD810D00024B04225A60024A1A607047D1
:10829800D8E603208CA20D0000231A464068FDF79B
:1082A8008FBD002202214068FDF79ABD00221146C9
:1082B8004068FDF78DBD002211464068FDF798BD66
:1082C80000231A4619464068FDF79ABD00231A464E
:1082D80019464068FDF79CBD002281F00101406805
:1082E800FDF79EBD00224068FDF7BABD0022114689
:1082F8004068FDF7BDBD002211464068FDF798BDF6
:108308002DE9F043002495B016460D460746FFF7C1
:1083180047FD214620220CA8009400F0C2FF40230C
:108328000C9321466B460CAA3046FDF731FB0446F8
:10833800002844D1024601216868FDF759FD022151
:10834800804622466868FDF753FD009E8146214617
:10835800002E34D0002932D17368022B02D00A2BA8
:1083680009D02AE0B8F1000F27D0716938460431E6
:10837800FFF743FD20E0B9F1000F1ED07469112208
:1083880001A800F08EFF06238DF8143001AD04F12A
:1083980008031834186859682A4603C20833A342E8
:1083A8001546F7D101A906A807ADFFF707FD0FCDC0
:1083B8003C1D0FC42B6823700121F669C8E700989B
:1083C800FDF7DEFA384615B0BDE8F083024B034AE4
:1083D8001A6000225A607047E0E60320C0A20D0030
:1083E80010B504460F48FDF71DFE28B1A4F10B0394
:1083F800022B01D8002010BD00F074F8FFF76AFEC8
:1084080008B1012CF6D9FFF7EDFDFFF7E8FD18B12B
:10841800A4F10903012BEDD9232C8CBF00200120E6
:1084280010BD00BFE8E60320232838B504460D46F2
:108438000AD8FF2908D0FFF7D3FF28B129462046DC
:10844800BDE83840FDF7BCBA38BD10B50446FDF7A5
:10845800BFFA0438C0B2012808D92046FFF7C0FF88
:1084680020B12046BDE81040FDF7BABA002010BD83
:108478000D2810B504469CBF0E34A4B22046FFF761
:10848800AFFF50B103212046FDF792FA032804D12B
:108498002046BDE81040FDF7ABBA002010BD000033
:1084A80070B50C4C0C4E0D4D00212046FDF7A6FD75
:1084B80020460B4C3246294600F034F8012120466C
:1084C800FDF79CFD324629462046BDE8704000F085
:1084D80029B800BFE8E6032084DC0320F55F0D001F
:1084E800F8E6032038B50B4D296811F001040FD1C7
:1084F8002846FBF7D2FD58B121460748FFF7D8FDBB
:108508002846FBF7CFFD054A0549034800F00AF85D
:10851800014838BD0CE7032010E7032084DC032062
:1085280061800D000B460146184600F07FBD000033
:10853800024B1868BFF35F8F704700BF24E7032022
:10854800FBF7A7BD10B5002814BF04460124204638
:10855800FDF7C6FC20B9FFF7EBFF08B18047F6E747
:1085680010BD08B5FDF7F4FC184B1A68D1075CBFBD
:1085780001221A60164B1A68D2075CBF01221A60E2
:10858800144B1A68D0075CBF01221A60124B1A6894
:10859800D1075CBF01221A60104B1A68D2075CBF72
:1085A80001221A600E4B1A68D0075CBF01221A60BC
:1085B8000C4B1A68D1075CBF01221A600A4B1A6873
:1085C800D2075CBF01221A60704700BF44E703204E
:1085D80040E703203CE7032038E7032034E7032083
:1085E80030E703202CE7032028E70320244B1A68F0
:1085F800D0075CBF01221A60224B1A68D1075CBF02
:1086080001221A60204B1A68D2075CBF01221A6047
:108618001E4B1A68D0075CBF01221A601C4B1A68EF
:10862800D1075CBF01221A601A4B1A68D2075CBFD7
:1086380001221A60184B1A68D0075CBF01221A6021
:10864800164B1A68D1075CBF01221A60144B1A68CE
:10865800D2075CBF01221A60124B1A68D0075CBFB0
:1086680001221A60104B1A68D1075CBF01221A60F8
:108678000E4B1A68D2075CBF01221A60704700BF10
:1086880074E7032070E703206CE7032068E7032002
:1086980064E7032060E703205CE7032058E7032032
:1086A80054E7032050E703204CE7032048E7032062
:1086B800244B1A68D0075CBF01221A60224B1A6843
:1086C800D1075CBF01221A60204B1A68D2075CBF31
:1086D80001221A601E4B1A68D0075CBF01221A607B
:1086E8001C4B1A68D1075CBF01221A601A4B1A6822
:1086F800D2075CBF01221A60184B1A68D0075CBF0A
:1087080001221A60164B1A68D1075CBF01221A6051
:10871800144B1A68D2075CBF01221A60124B1A6800
:10872800D0075CBF01221A60104B1A68D1075CBFE2
:1087380001221A600E4B1A68D2075CBF01221A6028
:10874800704700BFA4E70320A0E703209CE70320AD
:1087580098E7032094E7032090E703208CE70320A1
:1087680088E7032084E7032080E703207CE70320D1
:1087780078E70320184B1A68D1075CBF01221A60FA
:10878800164B1A68D2075CBF01221A60144B1A688C
:10879800D0075CBF01221A60124B1A68D1075CBF70
:1087A80001221A60104B1A68D2075CBF01221A60B6
:1087B8000E4B1A68D0075CBF01221A600C4B1A686E
:1087C800D1075CBF01221A600A4B1A68D2075CBF46
:1087D80001221A60704700BFC4E70320C0E70320E6
:1087E800BCE70320B8E70320B4E70320B0E7032081
:1087F800ACE70320A8E7032081F0004102E000BFB6
:1088080083F0004330B54FEA41044FEA430594EA48
:10881800050F08BF90EA020F1FBF54EA000C55EA83
:10882800020C7FEA645C7FEA655C00F0E2804FEA54
:108838005454D4EB5555B8BF6D420CDD2C4480EA36
:10884800020281EA030382EA000083EA010180EA66
:10885800020281EA0303362D88BF30BD11F0004FB4
:108868004FEA01314FF4801C4CEA113102D04042EA
:1088780061EB410113F0004F4FEA03334CEA133325
:1088880002D0524263EB430394EA050F00F0A7803D
:10889800A4F10104D5F1200E0DDB02FA0EFC22FA38
:1088A80005F2801841F1000103FA0EF2801843FA2C
:1088B80005F359410EE0A5F120050EF1200E012A1D
:1088C80003FA0EFC28BF4CF0020C43FA05F3C0185B
:1088D80051EBE37101F0004507D54FF0000EDCF1D4
:1088E800000C7EEB00006EEB0101B1F5801F1BD37D
:1088F800B1F5001F0CD349085FEA30004FEA3C0C81
:1089080004F101044FEA445212F5800F80F09A8076
:10891800BCF1004F08BF5FEA500C50F1000041EB7A
:10892800045141EA050130BD5FEA4C0C404141EB7E
:10893800010111F4801FA4F10104E9D191F0000FA5
:1089480004BF01460020B1FA81F308BF2033A3F128
:108958000B03B3F120020CDA0C3208DD02F1140C1F
:10896800C2F10C0201FA0CF021FA02F10CE002F15A
:108978001402D8BFC2F1200C01FA02F120FA0CFC53
:10898800DCBF41EA0C019040E41AA2BF01EB04519C
:10899800294330BD6FEA04041F3C1CDA0C340EDC9A
:1089A80004F11404C4F1200220FA04F001FA02F3DD
:1089B80040EA030021FA04F345EA030130BDC4F19B
:1089C8000C04C4F1200220FA02F001FA04F340EA90
:1089D8000300294630BD21FA04F0294630BD94F041
:1089E800000F83F4801306BF81F480110134013D28
:1089F8004EE77FEA645C18BF7FEA655C29D094EA99
:108A0800050F08BF90EA020F05D054EA000C04BF16
:108A18001946104630BD91EA030F1EBF0021002001
:108A280030BD5FEA545C05D14000494128BF41F0A0
:108A3800004130BD14F580043CBF01F5801130BD04
:108A480001F0004545F0FE4141F470014FF000008F
:108A580030BD7FEA645C1ABF194610467FEA655C40
:108A68001CBF0B46024650EA013406BF52EA0335E2
:108A780091EA030F41F4002130BD00BF90F0000FD0
:108A880004BF0021704730B54FF4806404F132040C
:108A98004FF000054FF0000150E700BF90F0000FC5
:108AA80004BF0021704730B54FF4806404F13204EC
:108AB80010F0004548BF40424FF000013EE700BFBC
:108AC80042004FEAE2014FEA31014FEA02701FBF4C
:108AD80012F07F4393F07F4F81F06051704792F01E
:108AE800000F14BF93F07F4F704730B54FF4607498
:108AF80001F0004521F0004120E700BF50EA0102E3
:108B080008BF704730B54FF000050AE050EA01028F
:108B180008BF704730B511F0004502D5404261EBFF
:108B280041014FF4806404F132045FEA915C3FF440
:108B3800DCAE4FF003025FEADC0C18BF03325FEAD9
:108B4800DC0C18BF033202EBDC02C2F1200300FA8E
:108B580003FC20FA02F001FA03FE40EA0E0021FAB3
:108B680002F11444C1E600BF70B54FF0FF0C4CF49D
:108B7800E06C1CEA11541DBF1CEA135594EA0C0F53
:108B880095EA0C0F00F0DEF82C4481EA030621EA8E
:108B98004C5123EA4C5350EA013518BF52EA0335C9
:108BA80041F4801143F4801338D0A0FB02CE4FF07B
:108BB8000005E1FB02E506F00042E0FB03E54FF0AB
:108BC8000006E1FB03569CF0000F18BF4EF0010EA3
:108BD800A4F1FF04B6F5007F64F5407404D25FEA9F
:108BE8004E0E6D4146EB060642EAC62141EA555152
:108BF8004FEAC52040EA5E504FEACE2EB4F1FD0C94
:108C080088BFBCF5E06F1ED8BEF1004F08BF5FEA11
:108C1800500E50F1000041EB045170BD06F00046C3
:108C280046EA010140EA020081EA0301B4EB5C0470
:108C3800C2BFD4EB0C0541EA045170BD41F4801168
:108C48004FF0000E013C00F3AB8014F1360FDEBF8D
:108C5800002001F0004170BDC4F10004203C35DA69
:108C68000C341BDC04F11404C4F1200500FA05F3EC
:108C780020FA04F001FA05F240EA020001F000428D
:108C880021F0004110EBD37021FA04F642EB060103
:108C98005EEA430E08BF20EAD37070BDC4F10C042D
:108CA800C4F1200500FA04F320FA05F001FA04F2F1
:108CB80040EA020001F0004110EBD37041F10001DD
:108CC8005EEA430E08BF20EAD37070BDC4F12005E8
:108CD80000FA05F24EEA020E20FA04F301FA05F250
:108CE80043EA020321FA04F001F0004121FA04F2F8
:108CF80020EA020000EBD3705EEA430E08BF20EAC8
:108D0800D37070BD94F0000F0FD101F00046400001
:108D180041EB010111F4801F08BF013CF7D041EA83
:108D2800060195F0000F18BF704703F00046520087
:108D380043EB030313F4801F08BF013DF7D043EA58
:108D48000603704794EA0C0F0CEA135518BF95EA0E
:108D58000C0F0CD050EA410618BF52EA4306D1D195
:108D680081EA030101F000414FF0000070BD50EAB4
:108D7800410606BF1046194652EA430619D094EA3E
:108D88000C0F02D150EA013613D195EA0C0F05D128
:108D980052EA03361CBF104619460AD181EA03017C
:108DA80001F0004141F0FE4141F470014FF0000034
:108DB80070BD41F0FE4141F4780170BD70B54FF0CF
:108DC800FF0C4CF4E06C1CEA11541DBF1CEA13554F
:108DD80094EA0C0F95EA0C0F00F0A7F8A4EB050431
:108DE80081EA030E52EA03354FEA013100F0888028
:108DF8004FEA03334FF0805545EA131343EA1263F1
:108E08004FEA022245EA111545EA10654FEA0026A5
:108E18000EF000419D4208BF964244F1FD0404F55E
:108E2800407402D25B084FEA3202B61A65EB0305BA
:108E38005B084FEA32024FF480104FF4002CB6EB77
:108E4800020E75EB030E22BFB61A754640EA0C00F7
:108E58005B084FEA3202B6EB020E75EB030E22BF37
:108E6800B61A754640EA5C005B084FEA3202B6EB78
:108E7800020E75EB030E22BFB61A754640EA9C0037
:108E88005B084FEA3202B6EB020E75EB030E22BF07
:108E9800B61A754640EADC0055EA060E18D04FEAC5
:108EA800051545EA16754FEA06164FEAC30343EA65
:108EB80052734FEAC2025FEA1C1CC0D111F4801F32
:108EC8000BD141EA00014FF000004FF0004CB6E72B
:108ED80011F4801F04BF01430020B4F1FD0C88BFCA
:108EE800BCF5E06F3FF6AFAEB5EB030C04BFB6EBD5
:108EF800020C5FEA500C50F1000041EB045170BDC8
:108F08000EF0004E4EEA113114EB5C04C2BFD4EBF4
:108F18000C0541EA045170BD41F480114FF0000E78
:108F2800013C90E645EA060E8DE60CEA135594EAF4
:108F38000C0F08BF95EA0C0F3FF43BAF94EA0C0FF7
:108F48000AD150EA01347FF434AF95EA0C0F7FF46C
:108F580025AF104619462CE795EA0C0F06D152EAC0
:108F680003353FF4FDAE1046194622E750EA4106A4
:108F780018BF52EA43067FF4C5AE50EA41047FF4B5
:108F88000DAF52EA43057FF4EBAE12E74FEA410218
:108F9800B2F1E04324BFB3F5001CDCF1FE5C0DD94F
:108FA80001F0004C4FEAC0024CEA5070B2F1004F99
:108FB80040EB830008BF20F00100704711F0804F9C
:108FC80021D113F13872BCBF01F00040704741F461
:108FD80080114FEA5252C2F11802C2F1200C10FA65
:108FE8000CF320FA02F018BF40F001004FEAC12349
:108FF8004FEAD32303FA0CFC40EA0C0023FA02F3ED
:109008004FEA4303CCE77FEA625307D150EA0133C2
:109018001EBF4FF0FE4040F44000704701F0004092
:1090280040F0FE4040F40000704700BF10B5054C0A
:1090380013462CB10A4601460220AFF3008010BD4A
:10904800204610BD0000000038B5074B1C68E36BD4
:1090580005461BB92420FCF743FFE063E16B284673
:10906800BDE8384000F002B834DC03202DE9F041B7
:109078000C46804600F08CFC21460746404600F02E
:109088008BFC466906F26C76B307044605D1642268
:1090980096FBF2F302FB13634BB94FF4C87596FBCA
:1090A800F5F305FB1365B5FA85F35B0900E00123C9
:1090B8005F4A302505FB032500F09EFA00F09EFA72
:1090C8005C4B1B68F3B17B689E4205D13968D8F8C0
:1090D8000030FA6941B90AE0304600F0E5F90028A5
:1090E800F4D14FF0FF330DE0934208DB01E09342E7
:1090F80007DABA6B9342ACBF0023012302E00023D6
:1091080000E001232362236A012B0CBFF96B396A43
:109118004FF461633C2091FBF3F603FB161361687F
:1091280093FBF0F200FB12302368891AA268616091
:109138001B1A921B3B2B2360A26003DD0131616087
:109148003C3B04E0002B03DA013961603C332360C7
:1091580063683B2B03DD0132A2603C3B04E0002B3B
:1091680003DA013AA2603C336360A368172B22DD5F
:10917800E2690132E261A2690132062AC8BF00220F
:10918800A261E268183B0132A3602369E26055F8E6
:1091980023108A4246DD01330C2B0CBF636923611F
:1091A800A2EB0102E26001BF013300222261636188
:1091B80008BFE26136E0002B34DAE269013AE26185
:1091C800A269013A48BF0622A261E2681833013A4F
:1091D800E260A36032BB2369013B01D423611DE037
:1091E8000B23236163695A1E12F0030F626103F2B5
:1091F8006B7305D1642193FBF1F201FB12324AB97A
:109208004FF4C87193FBF1F201FB1233B3FA83F305
:109218005B0900E0012303F5B673E361236955F8A0
:109228002330E36000F0E9F92046BDE8F08100BF93
:1092380054A40D00E4E7032010B50139024490421C
:1092480007D010F8013B11F8014FA342F7D0181BC3
:1092580010BD002010BD10B5431E0A44914204D031
:1092680011F8014B03F8014FF8E710BD884210B51B
:1092780001EB020301D8421E0BE09842FBD2811891
:10928800D21AD34204D013F8014D01F8014DF8E782
:1092980010BD994204D011F8014B02F8014FF8E7CC
:1092A80010BD02440346934202D003F8011BFAE7BB
:1092B8007047000038B5124B1C68A36B0546D3B93C
:1092C8001820FCF70DFE43F20E33A06303804AF624
:1092D800CD33438041F2342383804EF26D63C380E3
:1092E8004DF6EC630381052343810B23838101221F
:1092F8000023C0E90423A36B00221D615A6138BD15
:1093080034DC032010F8012B11F8013B012A28BF97
:109318009A42F7D0D01A7047034611F8012B03F888
:10932800012B002AF9D17047024B0146186800F05A
:1093380003B800BF34DC032070B5064608460C4667
:1093480000F00DF8451C29463046FCF709FE064694
:1093580018B12A462146FFF77EFF304670BD034606
:1093680013F8012B002AFBD1181A0138704730B5C1
:1093780082B1451E013915F8013F11F8014FA3428A
:1093880006D1EC431444E04201D0002BF3D11C4633
:10939800181B30BD104630BD2DE9F04780463C48CB
:1093A800D0F800900E46354615F8014B09EB04003D
:1093B800407800F0080000F0FF0708B12E46F2E7F9
:1093C8002D2C03D1B51C7478012703E02B2C04BF86
:1093D8007478B51C13B1102B0AD153E0302C4FD13F
:1093E800287800F0DF00582845D16C781023023522
:1093F8004FF0FF3C0026BCFBF3FC03FB0CFA6FEAC2
:109408000A0A304609EB040E9EF801E01EF0040F2C
:1094180001D0303C0BE01EF0030E1AD0BEF1010F54
:109428000CBF4FF0370E4FF0570ECEEB0404A3429B
:109438000FDD002E08DB604506D801D1544503DC5A
:1094480003FB0040012601E04FF0FF3615F8014B01
:10945800D8E7002E07DA2223C8F800304FF0FF3093
:109468002AB9BDE8F08707B1404272B106B1691E5A
:109478001160BDE8F0873024002BB9D10823B7E785
:109488000A23B5E7302CABD0B2E7BDE8F08700BFC0
:10949800D0DB032013460A46014602480068FFF75E
:1094A8007BBF00BF34DC03202DE9F74F044600F0F2
:1094B8006FFA40F2B1739C4240F396806FF4F66302
:1094C800E318A4F2B2729B1040F26D1505FB023549
:1094D800A4F26D726FF0630392FBF3F36FF4C8624A
:1094E8002B44A5184FF4C87295FBF2F51D4464236C
:1094F80094FBF2F794FBF3F602FB174703FB1646BF
:1095080000F13803B7FA87FE019304F003034460BF
:109518004FEA5E1E014600934FF0070C0B7A4A2B68
:109528000ED14B69009AEC1802B906B927B93B2B42
:10953800D4BF0023012300E000232344013B3FE084
:10954800442B02D14B692B443AE0009B2BB9002EE7
:109558000CBFF0464FF0010800E0F046244BCC6801
:10956800302202FB0838A8F1040AA9460123A342C5
:1095780004DA5AF804BF0133D944F8E709F10403BF
:1095880093FBFCFBCBEBCB0A012CCAEB030A4B6920
:10959800B8BF012404F18044B3EB0A0A0B6904F153
:1095A800FF3403F1FF3348BF0AF1070AC3EBC303D3
:1095B80058F824405344A34201DB073BFBE74B44E4
:1095C8008C690C4A02FB03430C6A234441F81C3F94
:1095D800019B9942A2D1C369826B9342ACBF00231D
:1095E80001230360012000E0002003B0BDE8F08FF4
:1095F80054A40D008051010070477047014B186852
:1096080000F002B834DC03202DE9F04F8DB0074696
:1096180000F0BEF9B049B14E0446384600F0B0F942
:10962800054660B9AE4BAF4A1860AF4B1860AF4BF8
:1096380030681A605A60FCF75BFC356048E13168B5
:1096480079B93068FCF754FC2846FFF788FE411CBE
:109658003846FCF785FC306048B12946FFF75CFEC8
:1096680005E0FFF74FFE002800F03281E9E72B788C
:109678009F4AA0493A2B08BF01350AAE334628460F
:10968800FCF756FC002840F323810A9BEF18EB5C9B
:109698002D2B03D101374FF0FF3503E02B2B08BFEB
:1096A800013701250DF1200A0DF11E0B4FF00008BE
:1096B8000396CDF808A00196CDF800B0334607AA66
:1096C8008D49ADF81E803846ADF82080FCF730FC97
:1096D800404540F3FD80BDF81E20BDF82030DFF87E
:1096E80024923C2101FB0233BDF81C204FF4616138
:1096F80001FB02335D4325627C4D7D4B2B600A9B49
:109708007C491F444A4633463846FCF711FC40451D
:1097180008DC2B686B60724B226A1A60724BC3F8C4
:109728000080D5E00A9BC5F80490FD18FB5C2D2B42
:1097380003D101354FF0FF3703E02B2B08BF01356C
:1097480001270023ADF81C30ADF81E30ADF82030ED
:109758000A930396CDF808A00196CDF800B03346D9
:1097680007AA65492846FCF7E3FB002804DC236ABE
:10977800A3F56163E3630EE0BDF81E20BDF8203059
:109788003C2101FB0233BDF81C204FF4616101FB51
:1097980002335F43E7630A9B27461D444FF00009E5
:1097A8002B782C2B08BF013595F80080B8F14D0FA8
:1097B80026D10DF12603029309AB00930396019677
:1097C80033460DF122024D492846FCF7B1FB032828
:1097D8007ED1BDF822104B1E0B2B79D8BDF8242062
:1097E800531E042B74D8BDF82630062B70D887F882
:1097F8000880F9603A617B610A9B05EB03082AE05F
:10980800B8F14A0F06BF0135434644230A220BA983
:1098180028460593FFF73EFEDDF82C80ADF82600BC
:109828004545059B14D14D23B9F1000F07D123728B
:109838000323E36002232361C4F814900BE084F847
:1098480024300B23A3620123E3620023236302E095
:1098580080B23B7278610223ADF81C300023ADF86A
:109868001E30ADF820300A9398F800302F2B0BD11A
:109878000396CDF808A00196CDF800B0334607AAA4
:109888001F494046FCF754FBBDF81E20BDF82030A8
:109898003C2101FB0233BDF81C204FF4616101FB40
:1098A8000233BB610A9D09F10109B9F1020F454470
:1098B80007F11C077FF474AF6068FFF7F5FD084BEC
:1098C800226A1A60E36B9B1A074A18BF01231360C8
:1098D8000DB0BDE8F08F00BFB4A40D00E0E7032091
:1098E800E8E70320B7A40D00E4E7032038DC0320F1
:1098F800D3E70320BBA40D00DEA40D00CAA40D000D
:10990800DDA40D00C8E703202DE9F84F07468B4674
:10991800904600F0D9F8194B1D689A463DB15C464F
:10992800234613F8012B42B13D2A1C46F8D138468C
:1099380000F0CBF80020BDE8F88FCBEB0404A94673
:1099480059F8040B0028F2D022465946FFF70FFDBC
:1099580088B959F8043C1E191B5D3D2B0BD1DAF868
:109968000030ED1AAD103846C8F8005000F0ADF8D8
:10997800701CBDE8F88F4D46E1E700BF80DC03208E
:1099880007B501AAFFF7C0FF03B05DF804FB0000AC
:109998000048704740DC03200268474BF0B592FB53
:1099A800F3F403FB1422002ABCBF02F5A83202F527
:1099B800C0724FF4616004F52F2492FBF0F300FBB2
:1099C80013224FF03C00ACBF04F66C2404F66B2461
:1099D8008B6092FBF0F300FB13224B600A600723B5
:1099E800E21C92FBF3F3C3EBC303D31A8B61334B33
:1099F800334D94FBF5F503FB054448F6AC62B4FB24
:109A0800F2F2224440F2B457B4FBF7F3D21A2D48CD
:109A1800B4FBF0F048F69466131AB3FBF6F6344438
:109A280040F26D12B3FBF2F0B3FBF7F3E31A02FB5B
:109A38001033992403EB83020232B2FBF4F20A2AB0
:109A480004FB02F404F102064FF00504B6FBF4F43B
:109A580034BF02266FF0090616444FF4C87202FBA1
:109A680005055F1C012E98BF0135B3F5997FA7EB5B
:109A7800040702D3A3F5997214E0820705D1642480
:109A8800B0FBF4F204FB12024AB94FF4C872B0FBFF
:109A9800F2F402FB1400B0FA80F2520900E001224D
:109AA8003B331A44A5F26C750023CA614D610E61FF
:109AB800CF600B620846F0BD805101004FC5FDFF25
:109AC800B13A0200B03A0200704770471D400D00DD
