:02000002D0002C
:1040000000400D0090530D00000006000C0005015B
:08401000040115050000000089
:10401800E44F0D0009480A49884208B505D0094A05
:10402800824202D0121A00F095FF0748074A002181
:10403800121A00F09AFF014808BD00BF78E3032078
:1040480000530D00E0E30320E0E30320F0E7032042
:1040580070B500F0DBFA074C074BE41AA4080025FA
:104068001E46A54204D056F8253098470135F8E792
:1040780070BD00BFF8520D00BC520D0000F013B81F
:1040880008B500F019F8BDE8084000F08DBA00F056
:104098006DB900F06BB90078B0FA80F0400970474C
:1040A80001230370704708B500F09EFB4FF41651CA
:1040B800BDE8084000F08CBB4FF4FA6000F036BA57
:1040C80000F010B808B5024B1B689B68019308BD47
:1040D8006802030008B5024B1B68DB68019308BD42
:1040E8006802030008B5024B1B681B68019308BDF2
:1040F8002C02030008B5024B1B68DB69019308BD5D
:104108003002030008B5024B1B685B68019308BDC9
:104118001802030008B5024B1B685B69019308BDD0
:104128001802030008B5024B1B689B68019308BD81
:104138004802030008B5024B1B681B69019308BDC0
:104148004802030008B5024B1B685B69019308BD70
:104158004802030008B5024B1B681B6B019308BD9E
:104168004802030008B5024B1B685B6C019308BD4D
:104178004802030008B5024B1B685B69019308BD40
:104188006402030008B5024B1B681B68019308BD55
:104198003C02030008B5024B1B68DB68019308BDAD
:1041A8003C02030008B5024B1B681B69019308BD5C
:1041B8003C02030008B5024B1B685B69019308BD0C
:1041C8003C02030008B5024B1B689B69019308BDBC
:1041D8003C02030008B5024B1B68DB69019308BD6C
:1041E8003C02030008B5024B1B689B6A019308BD9B
:1041F8003C02030008B5024B1B681B68019308BD0D
:104208004C02030008B5024B1B685B68019308BDAC
:104218004C02030008B5024B1B681B69019308BDDB
:104228004C02030008B5024B1B685B69019308BD8B
:104238004C02030008B5024B1B689B69019308BD3B
:104248004C02030008B5024B1B68DB69019308BDEB
:104258004C02030008B5024B1B681B6A019308BD9A
:104268004C02030008B5024B1B685B68019308BD4C
:104278002002030008B5024B1B685B69019308BD67
:104288002002030008B5034B1B68D3F8883001935C
:1042980008BD00002002030008B5034B1B68D3F8D3
:1042A8009430019308BD00002002030008B5024BBA
:1042B8001B685B68019308BD4002030008B5024B08
:1042C8001B689B68019308BD4002030008B5024BB8
:1042D8001B68DB68019308BD4002030008B5024B68
:1042E8001B681B69019308BD4002030008B5024B17
:1042F8001B685B69019308BD4002030008B5024BC7
:104308001B689B69019308BD4002030008B5024B76
:104318001B68DB69019308BD4002030008B5024B26
:104328001B681B6A019308BD4002030008B5024BD5
:104338001B681B6B019308BD4002030008B5024BC4
:104348001B685B6B019308BD4002030008B5024B74
:104358001B68DB6B019308BD4402030008B5024BE0
:104368001B681B68019308BD1C02030008B5024BBB
:104378001B685B68019308BD1C02030000221146FC
:104388004068FFF7CBBF002211464068FFF7D6BF51
:1043980000224068FFF7CABF002281F0010140688F
:1043A800FFF7B4BF00231A4619464068FFF7A6BFB7
:1043B80000231A4619464068FFF798BF00221146A5
:1043C8004068FFF78BBF002211464068FFF776BFB1
:1043D800002202214068FFF779BF00231A4640688F
:1043E800FFF764BF024B03225A60024A1A60704703
:1043F800E4E3032000500D00704710B51021044677
:1044080000F04FFC204610BD70B5084B0360044611
:1044180000250E4640F80C5FFFF79CFE30462671DB
:10442800FFF768FEA560204670BD00BF34500D0040
:10443800044B00204FF6FF72187058809A80FFF7DF
:1044480011BF00BFECE30320024800230360FFF71D
:1044580089BE00BFF4E30320F8B506460D468F1861
:104468000024BD420CD0336815F8011B9B68304608
:104478009847002801DB0444F3E7002C08BF0446F2
:104488002046F8BD70B505460C46084649B100F00F
:104498009DFD2B68024621462846DB68BDE8704032
:1044A800184770BD03689B68184730B58BB00B463A
:1044B80000218DF82410012A98BF0A220DF1230447
:1044C800B3FBF2F505FB123303F0FF03092B94BF8E
:1044D80030333733DBB2214604F801392B46002D3F
:1044E800EED1FFF7CFFF0BB030BD10B42AB9036887
:1044F8005DF8044B9B68C9B21847D2B25DF8044B0B
:10450800FFF7D3BFFFF7F1BF014B024A1A607047AC
:10451800F8E30320F4500D00024B1A68024B1A60AE
:10452800704700BF78E30320FCE303200021FFF776
:10453800A1BE10B58368044613B10322014698470B
:10454800204610BD10B50446FFF7F3FF204610BD06
:104558000348044A04490023836000F09DBB00BF60
:1045680000E40320E0E303204D450D0008B50C4BA3
:1045780033B100F039F903681B699847002809DC52
:10458800084B63B100F0AEF903681B69984700282F
:1045980003DC08BDAFF30080F2E7AFF3008008BD8D
:1045A800000000000000000008B5FFF7DFFFFFF77C
:1045B800B1FD014B186008BD4CE7032007B5002387
:1045C80000931A466FF07701FFF766FE03B05DF8B7
:1045D80004FB000007B543880A2B08D0502B09D1EB
:1045E800094B1B683BB103B05DF804EB1847FFF7B4
:1045F800E5FF06E0002300931A466FF07701FFF706
:104608004BFE03B05DF804FB10E4032010B5FFF780
:1046180079FD044600F0B2FC074B13B12046AFF316
:10462800008000210448FFF791FE00210348BDE8FF
:104638001040FFF727BE00BF00000000DD450D0059
:10464800704710B51821044600F02BFB204610BD1A
:10465800F0B5037D062B8DB00E4600F104074FF030
:10466800000402D000F1080518E00CAD394605F841
:10467800304D2F232A460A20FFF77CFD284600F0FC
:10468800A5FC33680246DB682946304698470FE0A8
:1046980024B12E213046FFF705FF044415F8011D0B
:1046A8000A223046FFF72EFFBD420444F0D12046CF
:1046B8000DB0F0BD10B5054B0446112240F8043B7F
:1046C800002100F052FC204610BD00BF50510D00E3
:1046D8000346074A10B543F8042B01F1100251F8BC
:1046E800044B43F8044B9142F9D10A781A7010BD73
:1046F80050510D0010B59DF8084044EA032343EAE1
:10470800024242EA016104234160037510BD37B5D6
:104718000D788B784A78C97800912946FFF7EAFF27
:1047280003B030BD41747047704708B50021007C64
:10473800FFF780FD30EA200028BF4FF0FF3008BDAA
:1047480008B50121007CFFF775FD30EA200028BF7D
:104758004FF0FF3008BD08B5007CFFF763FD20EA85
:10476800E07008BD08B5007CFFF754FD20EAE07052
:1047780008BD007CFFF76EBD10B51421044600F09B
:1047880090FA204610BD38B50446007C0D46FFF768
:1047980049FD002801DC607C28B12946207CFFF710
:1047A80051FD20EAE07038BD10B50446002363606F
:1047B8004FF47A73A360054B2360012308462174E4
:1047C80063741146FFF716FD204610BD64510D00B5
:1047D8000022007CFFF716BD10B514220446002104
:1047E80000F0C3FB204610BD30B50E4D87B001A8C0
:1047F800FFF7F2FF296811F0010410D12846FFF7EE
:104808004AFC60B101AA21460748FFF7CDFF2846B8
:10481800FFF746FC054A0649034800F03DFA0248FE
:1048280007B030BD14E4032018E40320E0E30320BC
:1048380031470D0070474174704708B5007CFFF799
:10484800D1FC20EAE07008BD08B5007CFFF7AAFC9F
:1048580020EAE07008BD08B5007CFFF7B3FC30EA39
:10486800200028BF4FF0FF3008BD08B5007CFFF7D7
:10487800A1FC30EA200028BF4FF0FF3008BD007CC3
:10488800FFF7A8BC10B51421044600F00AFA204628
:1048980010BD70B5457C04460E4625B9007CFFF76F
:1048A800A1FC002805DD3146207CBDE87040FFF7FB
:1048B80071BC284670BD000010B504460846114674
:1048C800002262604FF47A72A260054A22600122D7
:1048D800207462741A46FFF755FC204610BD00BFCD
:1048E80094510D0038B50C4D296811F0010411D10F
:1048F8002846FFF7D0FB68B1084A094B094821460A
:10490800FFF7DAFF2846FFF7CBFB074A07490548B8
:1049180000F0C2F9034838BDC4E40320C8E403200A
:1049280040E403202CE40320E0E303203D480D008D
:10493800002211464068FFF7F1BC0022114640688A
:10494800FFF7FCBC00224068FFF7F0BC002281F0B2
:1049580001014068FFF7DABC00231A46194640688F
:10496800FFF7CCBC00231A4619464068FFF7BEBCC7
:10497800002211464068FFF7B1BC0022114640688A
:10498800FFF79CBC002202214068FFF79FBC002370
:104998001A464068FFF78ABC38B5054688B10468EE
:1049A8004CB1A3681BB10322214620469847102129
:1049B800204600F076F928461421BDE8384000F07A
:1049C80070B938BD10B103685B681847704710B5F7
:1049D80003680446BBB15868FFF7A4FB78B923689D
:1049E8005A7C12B95868FFF7A5FB23685868FFF787
:1049F800A9FB20680023236028B1FFF7CDFF2068BA
:104A080008B1FFF7C9FF204610BD000038B50C4BB0
:104A180003600446D0F8CC0108B1FFF73AFBD4F89C
:104A2800C45135B12846FFF7D2FF0421284600F0CB
:104A380038F9A06808B1FFF7C5FF204638BD00BFA8
:104A4800C4510D0038B50D4C0D4B236000250223D1
:104A580004F5E4706360A560C4F8C451C4F8C85193
:104A6800FFF780FB074BC4F8CC5123602046064A69
:104A78000649BDE8384000F00FB900BF4CE50320F7
:104A88002C520D00C4510D00E0E30320154A0D001F
:104A9800002211464068FFF721BC002211464068F9
:104AA800FFF73CBC002211464068FFF747BC0022D4
:104AB8004068FFF73BBC002281F001014068FFF726
:104AC80025BC00231A4619464068FFF717BC002387
:104AD8001A4619464068FFF709BC0022114640688B
:104AE800FFF7ECBB002202214068FFF7EFBB002371
:104AF8001A464068FFF7DABB024B04225A60024AA2
:104B08001A6070471CE70320F8510D0000231A466D
:104B18004068FFF7CBBB002202214068FFF7D6BBF5
:104B2800002211464068FFF7C9BB002211464068C1
:104B3800FFF7D4BB00231A4619464068FFF7D6BBD7
:104B480000231A4619464068FFF7D8BB002281F0B7
:104B580001014068FFF7DABB00224068FFF7E6BBB7
:104B6800002211464068FFF7E9BB00221146406861
:104B7800FFF7D4BB2DE9F043002495B016460D4647
:104B88000746FFF797FD214620220CA8009400F065
:104B9800ECF940230C9321466B460CAA3046FFF7EC
:104BA80099FA0446002844D1024601216868FFF7B3
:104BB80095FB0221804622466868FFF78FFB009E1E
:104BC80081462146002E34D0002932D17368022B49
:104BD80002D00A2B09D02AE0B8F1000F27D071695A
:104BE80038460431FFF793FD20E0B9F1000F1ED0DD
:104BF8007469112201A800F0B8F906238DF8143061
:104C080001AD04F108031834186859682A4603C22C
:104C18000833A3421546F7D101A906A807ADFFF747
:104C280057FD0FCD3C1D0FC42B6823700121F66979
:104C3800C8E70098FFF746FA384615B0BDE8F08394
:104C4800024B034A1A6000225A60704724E7032087
:104C58002C520D0070B50C4C0C4E0D4D0021204609
:104C6800FFF7D2FB20460B4C3246294600F014F8D9
:104C780001212046FFF7C8FB324629462046BDE8F9
:104C8800704000F009B800BF2CE70320E0E30320E0
:104C980001440D003CE703200B460146184600F08E
:104CA8004BB9FFF7F4B90000184B1A68D1075CBF7D
:104CB80001221A60164B1A68D2075CBF01221A60DB
:104CC800144B1A68D0075CBF01221A60124B1A688D
:104CD800D1075CBF01221A60104B1A68D2075CBF6B
:104CE80001221A600E4B1A68D0075CBF01221A60B5
:104CF8000C4B1A68D1075CBF01221A600A4B1A686C
:104D0800D2075CBF01221A60704700BF6CE703201E
:104D180068E7032064E7032060E703205CE70320DB
:104D280058E7032054E7032050E70320244B1A6870
:104D3800D0075CBF01221A60224B1A68D1075CBFFA
:104D480001221A60204B1A68D2075CBF01221A6040
:104D58001E4B1A68D0075CBF01221A601C4B1A68E8
:104D6800D1075CBF01221A601A4B1A68D2075CBFD0
:104D780001221A60184B1A68D0075CBF01221A601A
:104D8800164B1A68D1075CBF01221A60144B1A68C7
:104D9800D2075CBF01221A60124B1A68D0075CBFA9
:104DA80001221A60104B1A68D1075CBF01221A60F1
:104DB8000E4B1A68D2075CBF01221A60704700BF09
:104DC8009CE7032098E7032094E7032090E703205B
:104DD8008CE7032088E7032084E7032080E703208B
:104DE8007CE7032078E7032074E7032070E70320BB
:104DF800244B1A68D0075CBF01221A60224B1A683C
:104E0800D1075CBF01221A60204B1A68D2075CBF29
:104E180001221A601E4B1A68D0075CBF01221A6073
:104E28001C4B1A68D1075CBF01221A601A4B1A681A
:104E3800D2075CBF01221A60184B1A68D0075CBF02
:104E480001221A60164B1A68D1075CBF01221A604A
:104E5800144B1A68D2075CBF01221A60124B1A68F9
:104E6800D0075CBF01221A60104B1A68D1075CBFDB
:104E780001221A600E4B1A68D2075CBF01221A6021
:104E8800704700BFCCE70320C8E70320C4E703202E
:104E9800C0E70320BCE70320B8E70320B4E70320FA
:104EA800B0E70320ACE70320A8E70320A4E703202A
:104EB800A0E70320184B1A68D1075CBF01221A60CB
:104EC800164B1A68D2075CBF01221A60144B1A6885
:104ED800D0075CBF01221A60124B1A68D1075CBF69
:104EE80001221A60104B1A68D2075CBF01221A60AF
:104EF8000E4B1A68D0075CBF01221A600C4B1A6867
:104F0800D1075CBF01221A600A4B1A68D2075CBF3E
:104F180001221A60704700BFECE70320E8E703208E
:104F2800E4E70320E0E70320DCE70320D8E70320D9
:104F3800D4E70320D0E7032010B5054C13462CB165
:104F48000A4601460220AFF3008010BD204610BD7E
:104F58000000000010B5431E0A44914204D011F825
:104F6800014B03F8014FF8E710BD02440346934292
:104F780002D003F8011BFAE77047000038B5124B5E
:104F88001C68A36B0546D3B91820FFF7E7F943F26D
:104F98000E33A06303804AF6CD33438041F23423B5
:104FA80083804EF26D63C3804DF6EC630381052365
:104FB80043810B23838101220023C0E90423A36BCF
:104FC80000221D615A6138BDDCE30320034613F853
:104FD800012B002AFBD1181A013870471D400D001B
:104FE80059400D0085400D0089400D00000000006B
:104FF8000000000000000000E3430D00D9430D004D
:10500800CF430D00C5430D00B9430D00AD430D005E
:10501800A1430D0099430D008F430D0085430D00FA
:105028007D4B0D00000000000000000001440D0051
:1050380003440D0066006C6E00666E00636F646565
:105048000064657461696C000D0A002530313075A3
:1050580020005D20002564002C200028293A20002B
:10506800205B00636F6465203D200025690064654E
:105078007461696C73203D2000626175640053653A
:105088007269616C0053657269616C310074797082
:105098006500706172616D00636D64006964006829
:1050A8006E64007374726D0066696C74006C766C63
:1050B8000061646448616E646C65720072656D6F4E
:1050C800766548616E646C657200656E756D4861E1
:1050D8006E646C657273004A534F4E537472656107
:1050E8006D4C6F6748616E646C657200617070002A
:1050F8006E6F6E6500747261636500696E666F003D
:105108007761726E006572726F720070616E6963AA
:1051180000616C6C005A00252B3033643A2530321C
:10512800750025592D256D2D25645425483A254DA2
:105138003A2553257A0061736374696D6500000030
:10514800000000000000000059460D0049460D000F
:105158004B460D00000000000000000031470D0024
:1051680081470D008F470D0061440D006D470D000C
:1051780033470D0049470D007B470D005F470D0081
:105188002D470D0000000000000000003D480D0004
:105198008D480D009B480D0061440D0051480D00DD
:1051A80073480D005F480D0087480D003F480D000B
:1051B80043480D00000000000000000097490D0062
:1051C8008D490D0083490D0079490D006D490D0089
:1051D80061490D0055490D004D490D0043490D0029
:1051E80039490D007D4B0D00000000000000000053
:1051F800F74A0D00ED4A0D00E34A0D00994A0D00EB
:10520800D74A0D00CB4A0D00BF4A0D00B74A0D0022
:10521800AD4A0D00A34A0D007D4B0D0000000000B3
:1052280000000000154B0D001F4B0D00294B0D0011
:10523800334B0D003D4B0D00494B0D00554B0D00F8
:10524800614B0D00694B0D00734B0D007D4B0D003C
:105258000000000000000000000000000000000046
:105268000000000000000000000000000000000036
:105278000000000000000000000000000000000026
:105288000000000000000000000000000000000016
:105298000000000000000000000000000000000006
:1052A80000000000000000000000000000000000F6
:1052B80043000000C9400D00ED430D0039440D00C6
:1052C80051440D0011450D0021450D0059450D00B3
:1052D8004D4A0D00014B0D00494C0D005D4C0D0071
:1052E800B14C0D00354D0D00F94D0D00BD4E0D00B2
:0852F8000000000000000000AE
:105300003E510D000000000058520D0078520D0073
:1053100098520D0000000000000000000000000096
:1053200000000000B8520D00000000000000000066
:10533000000000000000000000000000000000006D
:10534000000000000000000000000000000000005D
:10535000000000000000000000000000000000004D
:08536000000000007CE30320C3
:10536800FFFFFFFF00000102030405060708090A02
:105378000B0C0D0E0F101112131415161718191AFD
:085388001B1C1D1E1F20280044
:045390007856341205
:04000003D0004018D1
:00000001FF
